{
  "contracts/conduit/ConduitController.sol": {
    "ConduitController": {
      "abi": [
        {
          "inputs": [],
          "stateMutability": "nonpayable",
          "type": "constructor"
        },
        {
          "inputs": [
            {
              "internalType": "address",
              "name": "conduit",
              "type": "address"
            }
          ],
          "name": "CallerIsNotNewPotentialOwner",
          "type": "error"
        },
        {
          "inputs": [
            {
              "internalType": "address",
              "name": "conduit",
              "type": "address"
            }
          ],
          "name": "CallerIsNotOwner",
          "type": "error"
        },
        {
          "inputs": [
            {
              "internalType": "address",
              "name": "conduit",
              "type": "address"
            }
          ],
          "name": "ChannelOutOfRange",
          "type": "error"
        },
        {
          "inputs": [
            {
              "internalType": "address",
              "name": "conduit",
              "type": "address"
            }
          ],
          "name": "ConduitAlreadyExists",
          "type": "error"
        },
        {
          "inputs": [],
          "name": "InvalidCreator",
          "type": "error"
        },
        {
          "inputs": [],
          "name": "InvalidInitialOwner",
          "type": "error"
        },
        {
          "inputs": [
            {
              "internalType": "address",
              "name": "conduit",
              "type": "address"
            },
            {
              "internalType": "address",
              "name": "newPotentialOwner",
              "type": "address"
            }
          ],
          "name": "NewPotentialOwnerAlreadySet",
          "type": "error"
        },
        {
          "inputs": [
            {
              "internalType": "address",
              "name": "conduit",
              "type": "address"
            }
          ],
          "name": "NewPotentialOwnerIsZeroAddress",
          "type": "error"
        },
        {
          "inputs": [],
          "name": "NoConduit",
          "type": "error"
        },
        {
          "inputs": [
            {
              "internalType": "address",
              "name": "conduit",
              "type": "address"
            }
          ],
          "name": "NoPotentialOwnerCurrentlySet",
          "type": "error"
        },
        {
          "anonymous": false,
          "inputs": [
            {
              "indexed": false,
              "internalType": "address",
              "name": "conduit",
              "type": "address"
            },
            {
              "indexed": false,
              "internalType": "bytes32",
              "name": "conduitKey",
              "type": "bytes32"
            }
          ],
          "name": "NewConduit",
          "type": "event"
        },
        {
          "anonymous": false,
          "inputs": [
            {
              "indexed": true,
              "internalType": "address",
              "name": "conduit",
              "type": "address"
            },
            {
              "indexed": true,
              "internalType": "address",
              "name": "previousOwner",
              "type": "address"
            },
            {
              "indexed": true,
              "internalType": "address",
              "name": "newOwner",
              "type": "address"
            }
          ],
          "name": "OwnershipTransferred",
          "type": "event"
        },
        {
          "anonymous": false,
          "inputs": [
            {
              "indexed": true,
              "internalType": "address",
              "name": "newPotentialOwner",
              "type": "address"
            }
          ],
          "name": "PotentialOwnerUpdated",
          "type": "event"
        },
        {
          "inputs": [
            {
              "internalType": "address",
              "name": "conduit",
              "type": "address"
            }
          ],
          "name": "acceptOwnership",
          "outputs": [],
          "stateMutability": "nonpayable",
          "type": "function"
        },
        {
          "inputs": [
            {
              "internalType": "address",
              "name": "conduit",
              "type": "address"
            }
          ],
          "name": "cancelOwnershipTransfer",
          "outputs": [],
          "stateMutability": "nonpayable",
          "type": "function"
        },
        {
          "inputs": [
            {
              "internalType": "bytes32",
              "name": "conduitKey",
              "type": "bytes32"
            },
            {
              "internalType": "address",
              "name": "initialOwner",
              "type": "address"
            }
          ],
          "name": "createConduit",
          "outputs": [
            {
              "internalType": "address",
              "name": "conduit",
              "type": "address"
            }
          ],
          "stateMutability": "nonpayable",
          "type": "function"
        },
        {
          "inputs": [
            {
              "internalType": "address",
              "name": "conduit",
              "type": "address"
            },
            {
              "internalType": "uint256",
              "name": "channelIndex",
              "type": "uint256"
            }
          ],
          "name": "getChannel",
          "outputs": [
            {
              "internalType": "address",
              "name": "channel",
              "type": "address"
            }
          ],
          "stateMutability": "view",
          "type": "function"
        },
        {
          "inputs": [
            {
              "internalType": "address",
              "name": "conduit",
              "type": "address"
            },
            {
              "internalType": "address",
              "name": "channel",
              "type": "address"
            }
          ],
          "name": "getChannelStatus",
          "outputs": [
            {
              "internalType": "bool",
              "name": "isOpen",
              "type": "bool"
            }
          ],
          "stateMutability": "view",
          "type": "function"
        },
        {
          "inputs": [
            {
              "internalType": "address",
              "name": "conduit",
              "type": "address"
            }
          ],
          "name": "getChannels",
          "outputs": [
            {
              "internalType": "address[]",
              "name": "channels",
              "type": "address[]"
            }
          ],
          "stateMutability": "view",
          "type": "function"
        },
        {
          "inputs": [
            {
              "internalType": "bytes32",
              "name": "conduitKey",
              "type": "bytes32"
            }
          ],
          "name": "getConduit",
          "outputs": [
            {
              "internalType": "address",
              "name": "conduit",
              "type": "address"
            },
            {
              "internalType": "bool",
              "name": "exists",
              "type": "bool"
            }
          ],
          "stateMutability": "view",
          "type": "function"
        },
        {
          "inputs": [],
          "name": "getConduitCodeHashes",
          "outputs": [
            {
              "internalType": "bytes32",
              "name": "creationCodeHash",
              "type": "bytes32"
            },
            {
              "internalType": "bytes32",
              "name": "runtimeCodeHash",
              "type": "bytes32"
            }
          ],
          "stateMutability": "view",
          "type": "function"
        },
        {
          "inputs": [
            {
              "internalType": "address",
              "name": "conduit",
              "type": "address"
            }
          ],
          "name": "getKey",
          "outputs": [
            {
              "internalType": "bytes32",
              "name": "conduitKey",
              "type": "bytes32"
            }
          ],
          "stateMutability": "view",
          "type": "function"
        },
        {
          "inputs": [
            {
              "internalType": "address",
              "name": "conduit",
              "type": "address"
            }
          ],
          "name": "getPotentialOwner",
          "outputs": [
            {
              "internalType": "address",
              "name": "potentialOwner",
              "type": "address"
            }
          ],
          "stateMutability": "view",
          "type": "function"
        },
        {
          "inputs": [
            {
              "internalType": "address",
              "name": "conduit",
              "type": "address"
            }
          ],
          "name": "getTotalChannels",
          "outputs": [
            {
              "internalType": "uint256",
              "name": "totalChannels",
              "type": "uint256"
            }
          ],
          "stateMutability": "view",
          "type": "function"
        },
        {
          "inputs": [
            {
              "internalType": "address",
              "name": "conduit",
              "type": "address"
            }
          ],
          "name": "ownerOf",
          "outputs": [
            {
              "internalType": "address",
              "name": "owner",
              "type": "address"
            }
          ],
          "stateMutability": "view",
          "type": "function"
        },
        {
          "inputs": [
            {
              "internalType": "address",
              "name": "conduit",
              "type": "address"
            },
            {
              "internalType": "address",
              "name": "newPotentialOwner",
              "type": "address"
            }
          ],
          "name": "transferOwnership",
          "outputs": [],
          "stateMutability": "nonpayable",
          "type": "function"
        },
        {
          "inputs": [
            {
              "internalType": "address",
              "name": "conduit",
              "type": "address"
            },
            {
              "internalType": "address",
              "name": "channel",
              "type": "address"
            },
            {
              "internalType": "bool",
              "name": "isOpen",
              "type": "bool"
            }
          ],
          "name": "updateChannel",
          "outputs": [],
          "stateMutability": "nonpayable",
          "type": "function"
        }
      ],
      "evm": {
        "bytecode": {
          "linkReferences": {},
          "object": "60c08060405234620000ea57600090610c9f906001600160401b03603f8301601f1916820181811183821017620000da575b604052828252620023889160208101908484833951902060805260405192839281840192831184841017620000ca575b8339039082f58015620000ba575b6001600160a01b03163f60a05260405161227490816200011482396080518181816102b101528181610bcc0152610d06015260a0518181816102d401528181610c620152610da90152f35b620000c462000106565b6200006f565b620000d4620000ef565b62000061565b620000e4620000ef565b62000031565b600080fd5b50634e487b7160e01b600052604160045260246000fd5b506040513d6000823e3d90fdfe60806040526004361015610013575b600080fd5b60003560e01c8063027cc7641461012b5780630a96ad391461012257806313ad9cab1461011957806314afd79e1461011057806333bc8572146101075780634e3f9580146100fe57806351710e45146100f55780636d435421146100ec5780636e9bfd9f146100e3578063794593bc146100da5780637b37e561146100d15780638b9e028b146100c8578063906c87cc146100bf576393790f44146100b757600080fd5b61000e61126e565b5061000e6111fa565b5061000e61113c565b5061000e610fc8565b5061000e610c8a565b5061000e610b3c565b5061000e6109bf565b5061000e610765565b5061000e6106f3565b5061000e61064f565b5061000e6105db565b5061000e6102fa565b5061000e61027b565b5061000e61017a565b6004359073ffffffffffffffffffffffffffffffffffffffff8216820361000e57565b6024359073ffffffffffffffffffffffffffffffffffffffff8216820361000e57565b503461000e5760407ffffffffffffffffffffffffffffffffffffffffffffffffffffffffffffffffc36011261000e576101b2610134565b602435906101bf81611574565b73ffffffffffffffffffffffffffffffffffffffff80911691600083815280602052600360408220015482101561023f5790600360408361023b9661020a9552806020522001611400565b90549060031b1c166040519182918291909173ffffffffffffffffffffffffffffffffffffffff6020820193169052565b0390f35b602484604051907f6ceb340b0000000000000000000000000000000000000000000000000000000082526004820152fd5b600091031261000e57565b503461000e5760007ffffffffffffffffffffffffffffffffffffffffffffffffffffffffffffffffc36011261000e57604080517f000000000000000000000000000000000000000000000000000000000000000081527f00000000000000000000000000000000000000000000000000000000000000006020820152f35b503461000e5760607ffffffffffffffffffffffffffffffffffffffffffffffffffffffffffffffffc36011261000e57610332610134565b61033a610157565b90604435918215918215840361000e5761035381611505565b73ffffffffffffffffffffffffffffffffffffffff811690813b1561000e576040517fc4e8fcb500000000000000000000000000000000000000000000000000000000815273ffffffffffffffffffffffffffffffffffffffff841660048201528515156024820152610401926000908290604490829084905af180156105ce575b6105b5575b5073ffffffffffffffffffffffffffffffffffffffff166000526000602052604060002090565b92600484019261043183859073ffffffffffffffffffffffffffffffffffffffff16600052602052604060002090565b5491821590806105ae575b1561048157505050600361047d92930161045682826114ce565b54929073ffffffffffffffffffffffffffffffffffffffff16600052602052604060002090565b555b005b91949391816105a5575b5061049257005b6104df61047d938560037fffffffffffffffffffffffffffffffffffffffffffffffffffffffffffffffff600098019201916104ce83546113a4565b90808203610504575b505050611447565b9073ffffffffffffffffffffffffffffffffffffffff16600052602052604060002090565b6105766105449161053b61051b61059c9588611400565b905473ffffffffffffffffffffffffffffffffffffffff9160031b1c1690565b92839187611400565b90919082549060031b9173ffffffffffffffffffffffffffffffffffffffff9283811b93849216901b16911916179055565b859073ffffffffffffffffffffffffffffffffffffffff16600052602052604060002090565b553880806104d7565b9050153861048b565b508061043c565b806105c26105c892611335565b80610270565b386103da565b6105d6611397565b6103d5565b503461000e5760207ffffffffffffffffffffffffffffffffffffffffffffffffffffffffffffffffc36011261000e576020610615610134565b61061e81611574565b73ffffffffffffffffffffffffffffffffffffffff8091166000526000825260016040600020015416604051908152f35b503461000e5760407ffffffffffffffffffffffffffffffffffffffffffffffffffffffffffffffffc36011261000e5760206106e861068c610134565b73ffffffffffffffffffffffffffffffffffffffff6106a9610157565b916106b381611574565b166000526000835260046040600020019073ffffffffffffffffffffffffffffffffffffffff16600052602052604060002090565b541515604051908152f35b503461000e5760207ffffffffffffffffffffffffffffffffffffffffffffffffffffffffffffffffc36011261000e5773ffffffffffffffffffffffffffffffffffffffff610740610134565b61074981611574565b1660005260006020526020600360406000200154604051908152f35b503461000e5760207ffffffffffffffffffffffffffffffffffffffffffffffffffffffffffffffffc36011261000e5761079d610134565b6107a681611574565b61080c6107f360026107d88473ffffffffffffffffffffffffffffffffffffffff166000526000602052604060002090565b015473ffffffffffffffffffffffffffffffffffffffff1690565b73ffffffffffffffffffffffffffffffffffffffff1690565b33036109765761047f9060007f11a3cf439fb225bfe74225716b6774765670ec1060e3796802e62139d69974da81604051a2610896600261086d8373ffffffffffffffffffffffffffffffffffffffff166000526000602052604060002090565b017fffffffffffffffffffffffff00000000000000000000000000000000000000008154169055565b73ffffffffffffffffffffffffffffffffffffffff3390806108dd60016107d88673ffffffffffffffffffffffffffffffffffffffff166000526000602052604060002090565b169083167fc8894f26f396ce8c004245c8b7cd1b92103a6e4302fcbab883987149ac01b7ec6000604051a46001610935339273ffffffffffffffffffffffffffffffffffffffff166000526000602052604060002090565b019073ffffffffffffffffffffffffffffffffffffffff167fffffffffffffffffffffffff0000000000000000000000000000000000000000825416179055565b6040517f88c3a11500000000000000000000000000000000000000000000000000000000815273ffffffffffffffffffffffffffffffffffffffff919091166004820152602490fd5b503461000e5760407ffffffffffffffffffffffffffffffffffffffffffffffffffffffffffffffffc36011261000e576109f7610134565b6109ff610157565b90610a0981611505565b73ffffffffffffffffffffffffffffffffffffffff808316908115610b095750610a5b6107f360026107d88573ffffffffffffffffffffffffffffffffffffffff166000526000602052604060002090565b8114610ab95761093561047f93926002927f11a3cf439fb225bfe74225716b6774765670ec1060e3796802e62139d69974da6000604051a273ffffffffffffffffffffffffffffffffffffffff166000526000602052604060002090565b506040517fcbc080ca00000000000000000000000000000000000000000000000000000000815273ffffffffffffffffffffffffffffffffffffffff918216600482015291166024820152604490fd5b82602491604051917fa388d263000000000000000000000000000000000000000000000000000000008352166004820152fd5b503461000e5760207ffffffffffffffffffffffffffffffffffffffffffffffffffffffffffffffffc36011261000e576040517fff00000000000000000000000000000000000000000000000000000000000000602082019081523060601b7fffffffffffffffffffffffffffffffffffffffff00000000000000000000000016602183015260043560358301527f0000000000000000000000000000000000000000000000000000000000000000605583015273ffffffffffffffffffffffffffffffffffffffff91610c3b81607581015b037fffffffffffffffffffffffffffffffffffffffffffffffffffffffffffffffe08101835282611356565b519020604080519290911673ffffffffffffffffffffffffffffffffffffffff811683523f7f000000000000000000000000000000000000000000000000000000000000000014602083015290f35b503461000e576040807ffffffffffffffffffffffffffffffffffffffffffffffffffffffffffffffffc36011261000e57600435610cc6610157565b73ffffffffffffffffffffffffffffffffffffffff91828216908115610f9f57338160601c03610f7657610da46107f386516020810190610d8881610c0f7f0000000000000000000000000000000000000000000000000000000000000000883087917fffffffffffffffffffffffffffffffffffffffff000000000000000000000000605594927fff00000000000000000000000000000000000000000000000000000000000000855260601b166001840152601583015260358201520190565b51902073ffffffffffffffffffffffffffffffffffffffff1690565b92833f7f000000000000000000000000000000000000000000000000000000000000000014610f3057947f4397af6128d529b8ae0442f99db1296d5136062597a15bbc61c1b2a6431a7d15610eca838060009961023b989796865180610c9f8082019082821067ffffffffffffffff831117610f23575b6115a0833903908df515610f16575b610e9c610e578973ffffffffffffffffffffffffffffffffffffffff166000526000602052604060002090565b91600183019073ffffffffffffffffffffffffffffffffffffffff167fffffffffffffffffffffffff0000000000000000000000000000000000000000825416179055565b55835173ffffffffffffffffffffffffffffffffffffffff8716815260208101919091529081906040820190565b0390a15194859483167fc8894f26f396ce8c004245c8b7cd1b92103a6e4302fcbab883987149ac01b7ec8287a473ffffffffffffffffffffffffffffffffffffffff1682526020820190565b610f1e611397565b610e2a565b610f2b611305565b610e1b565b85517f6328ccb200000000000000000000000000000000000000000000000000000000815273ffffffffffffffffffffffffffffffffffffffff85166004820152602490fd5b600485517fcb6e5344000000000000000000000000000000000000000000000000000000008152fd5b600485517f99faaa04000000000000000000000000000000000000000000000000000000008152fd5b503461000e5760207ffffffffffffffffffffffffffffffffffffffffffffffffffffffffffffffffc36011261000e57611000610134565b61100981611505565b73ffffffffffffffffffffffffffffffffffffffff9081811660009281845283602052600260408520015416156110ba575061108e600291837f11a3cf439fb225bfe74225716b6774765670ec1060e3796802e62139d69974da81604051a273ffffffffffffffffffffffffffffffffffffffff166000526000602052604060002090565b017fffffffffffffffffffffffff00000000000000000000000000000000000000008154169055604051f35b602490604051907f6b0136160000000000000000000000000000000000000000000000000000000082526004820152fd5b6020908160408183019282815285518094520193019160005b828110611112575050505090565b835173ffffffffffffffffffffffffffffffffffffffff1685529381019392810192600101611104565b503461000e576020807ffffffffffffffffffffffffffffffffffffffffffffffffffffffffffffffffc36011261000e57611175610134565b9061117f82611574565b73ffffffffffffffffffffffffffffffffffffffff91826000911681528082526003604082200192604051908193808654938481520195845280842093915b8383106111e15761023b866111d5818a0382611356565b604051918291826110eb565b84548116875295810195600194850194909201916111be565b503461000e5760207ffffffffffffffffffffffffffffffffffffffffffffffffffffffffffffffffc36011261000e576020611234610134565b61123d81611574565b73ffffffffffffffffffffffffffffffffffffffff8091166000526000825260026040600020015416604051908152f35b503461000e5760207ffffffffffffffffffffffffffffffffffffffffffffffffffffffffffffffffc36011261000e5773ffffffffffffffffffffffffffffffffffffffff6112bb610134565b16600052600060205260406000205480156112db57602090604051908152f35b60046040517f4ca82090000000000000000000000000000000000000000000000000000000008152fd5b507f4e487b7100000000000000000000000000000000000000000000000000000000600052604160045260246000fd5b67ffffffffffffffff811161134957604052565b611351611305565b604052565b90601f7fffffffffffffffffffffffffffffffffffffffffffffffffffffffffffffffe0910116810190811067ffffffffffffffff82111761134957604052565b506040513d6000823e3d90fd5b600181106113d1577fffffffffffffffffffffffffffffffffffffffffffffffffffffffffffffffff0190565b7f4e487b7100000000000000000000000000000000000000000000000000000000600052601160045260246000fd5b80548210156114185760005260206000200190600090565b7f4e487b7100000000000000000000000000000000000000000000000000000000600052603260045260246000fd5b8054801561149f577fffffffffffffffffffffffffffffffffffffffffffffffffffffffffffffffff019061147c8282611400565b73ffffffffffffffffffffffffffffffffffffffff82549160031b1b1916905555565b7f4e487b7100000000000000000000000000000000000000000000000000000000600052603160045260246000fd5b906105446114f692805490680100000000000000008210156114f8575b600182018155611400565b565b611500611305565b6114eb565b61150e81611574565b73ffffffffffffffffffffffffffffffffffffffff809116908160005260006020526001604060002001541633036115435750565b602490604051907fd4ed9a170000000000000000000000000000000000000000000000000000000082526004820152fd5b73ffffffffffffffffffffffffffffffffffffffff166000526000602052604060002054156112db5756fe60a080604052346100235733608052610c7690816100298239608051816103c50152f35b600080fdfe60806040526004361015610013575b600080fd5b6000803560e01c9081634ce34aa21461006657508063899e104c1461005d5780638df25d92146100545763c4e8fcb51461004c57600080fd5b61000e610362565b5061000e61027f565b5061000e6101ab565b346101465760207ffffffffffffffffffffffffffffffffffffffffffffffffffffffffffffffffc3601126101465760043567ffffffffffffffff8111610142576100b5903690600401610149565b9133815280602052604081205415610116575b8281106100fa576040517f4ce34aa2000000000000000000000000000000000000000000000000000000008152602090f35b8061011061010b6001938686610532565b6105c4565b016100c8565b807f93daadf2000000000000000000000000000000000000000000000000000000006024925233600452fd5b5080fd5b80fd5b9181601f8401121561000e5782359167ffffffffffffffff831161000e5760208085019460c0850201011161000e57565b9181601f8401121561000e5782359167ffffffffffffffff831161000e576020808501948460051b01011161000e57565b503461000e5760407ffffffffffffffffffffffffffffffffffffffffffffffffffffffffffffffffc36011261000e5767ffffffffffffffff60043581811161000e576101fc903690600401610149565b9160243590811161000e5761021590369060040161017a565b919092600033815280602052604081205415610116575b8181106102685761023d8486610acb565b6040517f899e104c000000000000000000000000000000000000000000000000000000008152602090f35b8061027961010b6001938587610532565b0161022c565b503461000e5760207ffffffffffffffffffffffffffffffffffffffffffffffffffffffffffffffffc36011261000e5760043567ffffffffffffffff811161000e576102cf90369060040161017a565b33600052600060205260406000205415610316576102ec91610acb565b60206040517f8df25d92000000000000000000000000000000000000000000000000000000008152f35b7f93daadf2000000000000000000000000000000000000000000000000000000006000523360045260246000fd5b73ffffffffffffffffffffffffffffffffffffffff81160361000e57565b503461000e5760407ffffffffffffffffffffffffffffffffffffffffffffffffffffffffffffffffc36011261000e5760043561039e81610344565b6024359081151580830361000e5773ffffffffffffffffffffffffffffffffffffffff90817f00000000000000000000000000000000000000000000000000000000000000001633036105085761041f6104188473ffffffffffffffffffffffffffffffffffffffff166000526000602052604060002090565b5460ff1690565b1515146104b657816104a6846104767fae63067d43ac07563b7eb8db6595635fc77f1578a2a5ea06ba91b63e2afa37e29573ffffffffffffffffffffffffffffffffffffffff166000526000602052604060002090565b9060ff7fffffffffffffffffffffffffffffffffffffffffffffffffffffffffffffff0083541691151516179055565b60405193151584521691602090a2005b506040517f924e341e00000000000000000000000000000000000000000000000000000000815273ffffffffffffffffffffffffffffffffffffffff9190911660048201529015156024820152604490fd5b60046040517f6d5769be000000000000000000000000000000000000000000000000000000008152fd5b91908110156105425760c0020190565b7f4e487b7100000000000000000000000000000000000000000000000000000000600052603260045260246000fd5b6004111561057b57565b7f4e487b7100000000000000000000000000000000000000000000000000000000600052602160045260246000fd5b35600481101561000e5790565b356105c181610344565b90565b60016105cf826105aa565b6105d881610571565b0361061357806105ed602061061193016105b7565b906105fa604082016105b7565b60a0610608606084016105b7565b92013592610712565b565b600261061e826105aa565b61062781610571565b0361069657600160a08201350361066c5780610648602061061193016105b7565b90610655604082016105b7565b6080610663606084016105b7565b92013592610882565b60046040517fefcc00b1000000000000000000000000000000000000000000000000000000008152fd5b60036106a1826105aa565b6106aa81610571565b036106e857806106bf602061061193016105b7565b6106cb604083016105b7565b6106d7606084016105b7565b90608060a085013594013592610990565b60046040517f7932f1fc000000000000000000000000000000000000000000000000000000008152fd5b9092604051926000947f23b872dd00000000000000000000000000000000000000000000000000000000865280600452816024528260445260208660648180885af1803d15601f3d1160018a51141617163d151581161561077c575b505050505050604052606052565b80863b15151661076e579087959691156107bc57602486887f5f15d672000000000000000000000000000000000000000000000000000000008252600452fd5b156107f657506084947f98891923000000000000000000000000000000000000000000000000000000008552600452602452604452606452fd5b3d610835575b5060a4947ff486bc8700000000000000000000000000000000000000000000000000000000855260045260245260445281606452608452fd5b601f3d0160051c9060051c908060030291808211610869575b505060205a91011061086057856107fc565b833d81803e3d90fd5b8080600392028380020360091c9203020101868061084e565b9092813b1561096257604051926000947f23b872dd000000000000000000000000000000000000000000000000000000008652806004528160245282604452858060648180885af1156108db5750505050604052606052565b8593943d61091e575b5060a4947ff486bc870000000000000000000000000000000000000000000000000000000085526004526024526044526064526001608452fd5b601f3d0160051c9060051c908060030291808211610949575b505060205a91011061086057856108e4565b8080600392028380020360091c92030201018680610937565b507f5f15d6720000000000000000000000000000000000000000000000000000000060005260045260246000fd5b929093833b15610a9d57604051936080519160a0519360c051956000987ff242432a000000000000000000000000000000000000000000000000000000008a528060045281602452826044528360645260a06084528960a452898060c48180895af115610a0d57505050505060805260a05260c052604052606052565b89949550883d610a50575b5060a4957ff486bc87000000000000000000000000000000000000000000000000000000008652600452602452604452606452608452fd5b601f3d0160051c9060051c908060030291808211610a84575b505060205a910110610a7b5786610a18565b843d81803e3d90fd5b8080600392028380020360091c92030201018780610a69565b837f5f15d6720000000000000000000000000000000000000000000000000000000060005260045260246000fd5b90816020907f2eb2c2d600000000000000000000000000000000000000000000000000000000825260005b838110610b095750505050506080604052565b8435820194853590813b156109625760a09182880192833560059181831b948b60c08097608094818301868501351490606085013514169201013584141615610c165789019a890160243760061b9360e0850160a452610104850194600086526040019060c437600080858982865af115610b8a5750505050600101610af6565b869394503d610bcb575b507fafc445e20000000000000000000000000000000000000000000000000000000060005260045260645260849081510190526000fd5b84601f3d01821c911c90600381810292808311610bff575b505050835a910110610bf55784610b94565b3d6000803e3d6000fd5b8080028380020360091c9203020101858080610be3565b7feba2084c0000000000000000000000000000000000000000000000000000000060005260046000fdfea2646970667358221220c5c8d054d9d5df7c3530eab1c32506aad1fcb6772c1457f0da5443ad9e91b4a364736f6c634300080e0033a264697066735822122031e2de61a9e35e9e87d5eef6a36b045a0bab54c4031fd01a0f8138afce3cec3164736f6c634300080e003360a080604052346100235733608052610c7690816100298239608051816103c50152f35b600080fdfe60806040526004361015610013575b600080fd5b6000803560e01c9081634ce34aa21461006657508063899e104c1461005d5780638df25d92146100545763c4e8fcb51461004c57600080fd5b61000e610362565b5061000e61027f565b5061000e6101ab565b346101465760207ffffffffffffffffffffffffffffffffffffffffffffffffffffffffffffffffc3601126101465760043567ffffffffffffffff8111610142576100b5903690600401610149565b9133815280602052604081205415610116575b8281106100fa576040517f4ce34aa2000000000000000000000000000000000000000000000000000000008152602090f35b8061011061010b6001938686610532565b6105c4565b016100c8565b807f93daadf2000000000000000000000000000000000000000000000000000000006024925233600452fd5b5080fd5b80fd5b9181601f8401121561000e5782359167ffffffffffffffff831161000e5760208085019460c0850201011161000e57565b9181601f8401121561000e5782359167ffffffffffffffff831161000e576020808501948460051b01011161000e57565b503461000e5760407ffffffffffffffffffffffffffffffffffffffffffffffffffffffffffffffffc36011261000e5767ffffffffffffffff60043581811161000e576101fc903690600401610149565b9160243590811161000e5761021590369060040161017a565b919092600033815280602052604081205415610116575b8181106102685761023d8486610acb565b6040517f899e104c000000000000000000000000000000000000000000000000000000008152602090f35b8061027961010b6001938587610532565b0161022c565b503461000e5760207ffffffffffffffffffffffffffffffffffffffffffffffffffffffffffffffffc36011261000e5760043567ffffffffffffffff811161000e576102cf90369060040161017a565b33600052600060205260406000205415610316576102ec91610acb565b60206040517f8df25d92000000000000000000000000000000000000000000000000000000008152f35b7f93daadf2000000000000000000000000000000000000000000000000000000006000523360045260246000fd5b73ffffffffffffffffffffffffffffffffffffffff81160361000e57565b503461000e5760407ffffffffffffffffffffffffffffffffffffffffffffffffffffffffffffffffc36011261000e5760043561039e81610344565b6024359081151580830361000e5773ffffffffffffffffffffffffffffffffffffffff90817f00000000000000000000000000000000000000000000000000000000000000001633036105085761041f6104188473ffffffffffffffffffffffffffffffffffffffff166000526000602052604060002090565b5460ff1690565b1515146104b657816104a6846104767fae63067d43ac07563b7eb8db6595635fc77f1578a2a5ea06ba91b63e2afa37e29573ffffffffffffffffffffffffffffffffffffffff166000526000602052604060002090565b9060ff7fffffffffffffffffffffffffffffffffffffffffffffffffffffffffffffff0083541691151516179055565b60405193151584521691602090a2005b506040517f924e341e00000000000000000000000000000000000000000000000000000000815273ffffffffffffffffffffffffffffffffffffffff9190911660048201529015156024820152604490fd5b60046040517f6d5769be000000000000000000000000000000000000000000000000000000008152fd5b91908110156105425760c0020190565b7f4e487b7100000000000000000000000000000000000000000000000000000000600052603260045260246000fd5b6004111561057b57565b7f4e487b7100000000000000000000000000000000000000000000000000000000600052602160045260246000fd5b35600481101561000e5790565b356105c181610344565b90565b60016105cf826105aa565b6105d881610571565b0361061357806105ed602061061193016105b7565b906105fa604082016105b7565b60a0610608606084016105b7565b92013592610712565b565b600261061e826105aa565b61062781610571565b0361069657600160a08201350361066c5780610648602061061193016105b7565b90610655604082016105b7565b6080610663606084016105b7565b92013592610882565b60046040517fefcc00b1000000000000000000000000000000000000000000000000000000008152fd5b60036106a1826105aa565b6106aa81610571565b036106e857806106bf602061061193016105b7565b6106cb604083016105b7565b6106d7606084016105b7565b90608060a085013594013592610990565b60046040517f7932f1fc000000000000000000000000000000000000000000000000000000008152fd5b9092604051926000947f23b872dd00000000000000000000000000000000000000000000000000000000865280600452816024528260445260208660648180885af1803d15601f3d1160018a51141617163d151581161561077c575b505050505050604052606052565b80863b15151661076e579087959691156107bc57602486887f5f15d672000000000000000000000000000000000000000000000000000000008252600452fd5b156107f657506084947f98891923000000000000000000000000000000000000000000000000000000008552600452602452604452606452fd5b3d610835575b5060a4947ff486bc8700000000000000000000000000000000000000000000000000000000855260045260245260445281606452608452fd5b601f3d0160051c9060051c908060030291808211610869575b505060205a91011061086057856107fc565b833d81803e3d90fd5b8080600392028380020360091c9203020101868061084e565b9092813b1561096257604051926000947f23b872dd000000000000000000000000000000000000000000000000000000008652806004528160245282604452858060648180885af1156108db5750505050604052606052565b8593943d61091e575b5060a4947ff486bc870000000000000000000000000000000000000000000000000000000085526004526024526044526064526001608452fd5b601f3d0160051c9060051c908060030291808211610949575b505060205a91011061086057856108e4565b8080600392028380020360091c92030201018680610937565b507f5f15d6720000000000000000000000000000000000000000000000000000000060005260045260246000fd5b929093833b15610a9d57604051936080519160a0519360c051956000987ff242432a000000000000000000000000000000000000000000000000000000008a528060045281602452826044528360645260a06084528960a452898060c48180895af115610a0d57505050505060805260a05260c052604052606052565b89949550883d610a50575b5060a4957ff486bc87000000000000000000000000000000000000000000000000000000008652600452602452604452606452608452fd5b601f3d0160051c9060051c908060030291808211610a84575b505060205a910110610a7b5786610a18565b843d81803e3d90fd5b8080600392028380020360091c92030201018780610a69565b837f5f15d6720000000000000000000000000000000000000000000000000000000060005260045260246000fd5b90816020907f2eb2c2d600000000000000000000000000000000000000000000000000000000825260005b838110610b095750505050506080604052565b8435820194853590813b156109625760a09182880192833560059181831b948b60c08097608094818301868501351490606085013514169201013584141615610c165789019a890160243760061b9360e0850160a452610104850194600086526040019060c437600080858982865af115610b8a5750505050600101610af6565b869394503d610bcb575b507fafc445e20000000000000000000000000000000000000000000000000000000060005260045260645260849081510190526000fd5b84601f3d01821c911c90600381810292808311610bff575b505050835a910110610bf55784610b94565b3d6000803e3d6000fd5b8080028380020360091c9203020101858080610be3565b7feba2084c0000000000000000000000000000000000000000000000000000000060005260046000fdfea2646970667358221220c5c8d054d9d5df7c3530eab1c32506aad1fcb6772c1457f0da5443ad9e91b4a364736f6c634300080e0033",
          "opcodes": "PUSH1 0xC0 DUP1 PUSH1 0x40 MSTORE CALLVALUE PUSH3 0xEA JUMPI PUSH1 0x0 SWAP1 PUSH2 0xC9F SWAP1 PUSH1 0x1 PUSH1 0x1 PUSH1 0x40 SHL SUB PUSH1 0x3F DUP4 ADD PUSH1 0x1F NOT AND DUP3 ADD DUP2 DUP2 GT DUP4 DUP3 LT OR PUSH3 0xDA JUMPI JUMPDEST PUSH1 0x40 MSTORE DUP3 DUP3 MSTORE PUSH3 0x2388 SWAP2 PUSH1 0x20 DUP2 ADD SWAP1 DUP5 DUP5 DUP4 CODECOPY MLOAD SWAP1 KECCAK256 PUSH1 0x80 MSTORE PUSH1 0x40 MLOAD SWAP3 DUP4 SWAP3 DUP2 DUP5 ADD SWAP3 DUP4 GT DUP5 DUP5 LT OR PUSH3 0xCA JUMPI JUMPDEST DUP4 CODECOPY SUB SWAP1 DUP3 CREATE2 DUP1 ISZERO PUSH3 0xBA JUMPI JUMPDEST PUSH1 0x1 PUSH1 0x1 PUSH1 0xA0 SHL SUB AND EXTCODEHASH PUSH1 0xA0 MSTORE PUSH1 0x40 MLOAD PUSH2 0x2274 SWAP1 DUP2 PUSH3 0x114 DUP3 CODECOPY PUSH1 0x80 MLOAD DUP2 DUP2 DUP2 PUSH2 0x2B1 ADD MSTORE DUP2 DUP2 PUSH2 0xBCC ADD MSTORE PUSH2 0xD06 ADD MSTORE PUSH1 0xA0 MLOAD DUP2 DUP2 DUP2 PUSH2 0x2D4 ADD MSTORE DUP2 DUP2 PUSH2 0xC62 ADD MSTORE PUSH2 0xDA9 ADD MSTORE RETURN JUMPDEST PUSH3 0xC4 PUSH3 0x106 JUMP JUMPDEST PUSH3 0x6F JUMP JUMPDEST PUSH3 0xD4 PUSH3 0xEF JUMP JUMPDEST PUSH3 0x61 JUMP JUMPDEST PUSH3 0xE4 PUSH3 0xEF JUMP JUMPDEST PUSH3 0x31 JUMP JUMPDEST PUSH1 0x0 DUP1 REVERT JUMPDEST POP PUSH4 0x4E487B71 PUSH1 0xE0 SHL PUSH1 0x0 MSTORE PUSH1 0x41 PUSH1 0x4 MSTORE PUSH1 0x24 PUSH1 0x0 REVERT JUMPDEST POP PUSH1 0x40 MLOAD RETURNDATASIZE PUSH1 0x0 DUP3 RETURNDATACOPY RETURNDATASIZE SWAP1 REVERT INVALID PUSH1 0x80 PUSH1 0x40 MSTORE PUSH1 0x4 CALLDATASIZE LT ISZERO PUSH2 0x13 JUMPI JUMPDEST PUSH1 0x0 DUP1 REVERT JUMPDEST PUSH1 0x0 CALLDATALOAD PUSH1 0xE0 SHR DUP1 PUSH4 0x27CC764 EQ PUSH2 0x12B JUMPI DUP1 PUSH4 0xA96AD39 EQ PUSH2 0x122 JUMPI DUP1 PUSH4 0x13AD9CAB EQ PUSH2 0x119 JUMPI DUP1 PUSH4 0x14AFD79E EQ PUSH2 0x110 JUMPI DUP1 PUSH4 0x33BC8572 EQ PUSH2 0x107 JUMPI DUP1 PUSH4 0x4E3F9580 EQ PUSH2 0xFE JUMPI DUP1 PUSH4 0x51710E45 EQ PUSH2 0xF5 JUMPI DUP1 PUSH4 0x6D435421 EQ PUSH2 0xEC JUMPI DUP1 PUSH4 0x6E9BFD9F EQ PUSH2 0xE3 JUMPI DUP1 PUSH4 0x794593BC EQ PUSH2 0xDA JUMPI DUP1 PUSH4 0x7B37E561 EQ PUSH2 0xD1 JUMPI DUP1 PUSH4 0x8B9E028B EQ PUSH2 0xC8 JUMPI DUP1 PUSH4 0x906C87CC EQ PUSH2 0xBF JUMPI PUSH4 0x93790F44 EQ PUSH2 0xB7 JUMPI PUSH1 0x0 DUP1 REVERT JUMPDEST PUSH2 0xE PUSH2 0x126E JUMP JUMPDEST POP PUSH2 0xE PUSH2 0x11FA JUMP JUMPDEST POP PUSH2 0xE PUSH2 0x113C JUMP JUMPDEST POP PUSH2 0xE PUSH2 0xFC8 JUMP JUMPDEST POP PUSH2 0xE PUSH2 0xC8A JUMP JUMPDEST POP PUSH2 0xE PUSH2 0xB3C JUMP JUMPDEST POP PUSH2 0xE PUSH2 0x9BF JUMP JUMPDEST POP PUSH2 0xE PUSH2 0x765 JUMP JUMPDEST POP PUSH2 0xE PUSH2 0x6F3 JUMP JUMPDEST POP PUSH2 0xE PUSH2 0x64F JUMP JUMPDEST POP PUSH2 0xE PUSH2 0x5DB JUMP JUMPDEST POP PUSH2 0xE PUSH2 0x2FA JUMP JUMPDEST POP PUSH2 0xE PUSH2 0x27B JUMP JUMPDEST POP PUSH2 0xE PUSH2 0x17A JUMP JUMPDEST PUSH1 0x4 CALLDATALOAD SWAP1 PUSH20 0xFFFFFFFFFFFFFFFFFFFFFFFFFFFFFFFFFFFFFFFF DUP3 AND DUP3 SUB PUSH2 0xE JUMPI JUMP JUMPDEST PUSH1 0x24 CALLDATALOAD SWAP1 PUSH20 0xFFFFFFFFFFFFFFFFFFFFFFFFFFFFFFFFFFFFFFFF DUP3 AND DUP3 SUB PUSH2 0xE JUMPI JUMP JUMPDEST POP CALLVALUE PUSH2 0xE JUMPI PUSH1 0x40 PUSH32 0xFFFFFFFFFFFFFFFFFFFFFFFFFFFFFFFFFFFFFFFFFFFFFFFFFFFFFFFFFFFFFFFC CALLDATASIZE ADD SLT PUSH2 0xE JUMPI PUSH2 0x1B2 PUSH2 0x134 JUMP JUMPDEST PUSH1 0x24 CALLDATALOAD SWAP1 PUSH2 0x1BF DUP2 PUSH2 0x1574 JUMP JUMPDEST PUSH20 0xFFFFFFFFFFFFFFFFFFFFFFFFFFFFFFFFFFFFFFFF DUP1 SWAP2 AND SWAP2 PUSH1 0x0 DUP4 DUP2 MSTORE DUP1 PUSH1 0x20 MSTORE PUSH1 0x3 PUSH1 0x40 DUP3 KECCAK256 ADD SLOAD DUP3 LT ISZERO PUSH2 0x23F JUMPI SWAP1 PUSH1 0x3 PUSH1 0x40 DUP4 PUSH2 0x23B SWAP7 PUSH2 0x20A SWAP6 MSTORE DUP1 PUSH1 0x20 MSTORE KECCAK256 ADD PUSH2 0x1400 JUMP JUMPDEST SWAP1 SLOAD SWAP1 PUSH1 0x3 SHL SHR AND PUSH1 0x40 MLOAD SWAP2 DUP3 SWAP2 DUP3 SWAP2 SWAP1 SWAP2 PUSH20 0xFFFFFFFFFFFFFFFFFFFFFFFFFFFFFFFFFFFFFFFF PUSH1 0x20 DUP3 ADD SWAP4 AND SWAP1 MSTORE JUMP JUMPDEST SUB SWAP1 RETURN JUMPDEST PUSH1 0x24 DUP5 PUSH1 0x40 MLOAD SWAP1 PUSH32 0x6CEB340B00000000000000000000000000000000000000000000000000000000 DUP3 MSTORE PUSH1 0x4 DUP3 ADD MSTORE REVERT JUMPDEST PUSH1 0x0 SWAP2 SUB SLT PUSH2 0xE JUMPI JUMP JUMPDEST POP CALLVALUE PUSH2 0xE JUMPI PUSH1 0x0 PUSH32 0xFFFFFFFFFFFFFFFFFFFFFFFFFFFFFFFFFFFFFFFFFFFFFFFFFFFFFFFFFFFFFFFC CALLDATASIZE ADD SLT PUSH2 0xE JUMPI PUSH1 0x40 DUP1 MLOAD PUSH32 0x0 DUP2 MSTORE PUSH32 0x0 PUSH1 0x20 DUP3 ADD MSTORE RETURN JUMPDEST POP CALLVALUE PUSH2 0xE JUMPI PUSH1 0x60 PUSH32 0xFFFFFFFFFFFFFFFFFFFFFFFFFFFFFFFFFFFFFFFFFFFFFFFFFFFFFFFFFFFFFFFC CALLDATASIZE ADD SLT PUSH2 0xE JUMPI PUSH2 0x332 PUSH2 0x134 JUMP JUMPDEST PUSH2 0x33A PUSH2 0x157 JUMP JUMPDEST SWAP1 PUSH1 0x44 CALLDATALOAD SWAP2 DUP3 ISZERO SWAP2 DUP3 ISZERO DUP5 SUB PUSH2 0xE JUMPI PUSH2 0x353 DUP2 PUSH2 0x1505 JUMP JUMPDEST PUSH20 0xFFFFFFFFFFFFFFFFFFFFFFFFFFFFFFFFFFFFFFFF DUP2 AND SWAP1 DUP2 EXTCODESIZE ISZERO PUSH2 0xE JUMPI PUSH1 0x40 MLOAD PUSH32 0xC4E8FCB500000000000000000000000000000000000000000000000000000000 DUP2 MSTORE PUSH20 0xFFFFFFFFFFFFFFFFFFFFFFFFFFFFFFFFFFFFFFFF DUP5 AND PUSH1 0x4 DUP3 ADD MSTORE DUP6 ISZERO ISZERO PUSH1 0x24 DUP3 ADD MSTORE PUSH2 0x401 SWAP3 PUSH1 0x0 SWAP1 DUP3 SWAP1 PUSH1 0x44 SWAP1 DUP3 SWAP1 DUP5 SWAP1 GAS CALL DUP1 ISZERO PUSH2 0x5CE JUMPI JUMPDEST PUSH2 0x5B5 JUMPI JUMPDEST POP PUSH20 0xFFFFFFFFFFFFFFFFFFFFFFFFFFFFFFFFFFFFFFFF AND PUSH1 0x0 MSTORE PUSH1 0x0 PUSH1 0x20 MSTORE PUSH1 0x40 PUSH1 0x0 KECCAK256 SWAP1 JUMP JUMPDEST SWAP3 PUSH1 0x4 DUP5 ADD SWAP3 PUSH2 0x431 DUP4 DUP6 SWAP1 PUSH20 0xFFFFFFFFFFFFFFFFFFFFFFFFFFFFFFFFFFFFFFFF AND PUSH1 0x0 MSTORE PUSH1 0x20 MSTORE PUSH1 0x40 PUSH1 0x0 KECCAK256 SWAP1 JUMP JUMPDEST SLOAD SWAP2 DUP3 ISZERO SWAP1 DUP1 PUSH2 0x5AE JUMPI JUMPDEST ISZERO PUSH2 0x481 JUMPI POP POP POP PUSH1 0x3 PUSH2 0x47D SWAP3 SWAP4 ADD PUSH2 0x456 DUP3 DUP3 PUSH2 0x14CE JUMP JUMPDEST SLOAD SWAP3 SWAP1 PUSH20 0xFFFFFFFFFFFFFFFFFFFFFFFFFFFFFFFFFFFFFFFF AND PUSH1 0x0 MSTORE PUSH1 0x20 MSTORE PUSH1 0x40 PUSH1 0x0 KECCAK256 SWAP1 JUMP JUMPDEST SSTORE JUMPDEST STOP JUMPDEST SWAP2 SWAP5 SWAP4 SWAP2 DUP2 PUSH2 0x5A5 JUMPI JUMPDEST POP PUSH2 0x492 JUMPI STOP JUMPDEST PUSH2 0x4DF PUSH2 0x47D SWAP4 DUP6 PUSH1 0x3 PUSH32 0xFFFFFFFFFFFFFFFFFFFFFFFFFFFFFFFFFFFFFFFFFFFFFFFFFFFFFFFFFFFFFFFF PUSH1 0x0 SWAP9 ADD SWAP3 ADD SWAP2 PUSH2 0x4CE DUP4 SLOAD PUSH2 0x13A4 JUMP JUMPDEST SWAP1 DUP1 DUP3 SUB PUSH2 0x504 JUMPI JUMPDEST POP POP POP PUSH2 0x1447 JUMP JUMPDEST SWAP1 PUSH20 0xFFFFFFFFFFFFFFFFFFFFFFFFFFFFFFFFFFFFFFFF AND PUSH1 0x0 MSTORE PUSH1 0x20 MSTORE PUSH1 0x40 PUSH1 0x0 KECCAK256 SWAP1 JUMP JUMPDEST PUSH2 0x576 PUSH2 0x544 SWAP2 PUSH2 0x53B PUSH2 0x51B PUSH2 0x59C SWAP6 DUP9 PUSH2 0x1400 JUMP JUMPDEST SWAP1 SLOAD PUSH20 0xFFFFFFFFFFFFFFFFFFFFFFFFFFFFFFFFFFFFFFFF SWAP2 PUSH1 0x3 SHL SHR AND SWAP1 JUMP JUMPDEST SWAP3 DUP4 SWAP2 DUP8 PUSH2 0x1400 JUMP JUMPDEST SWAP1 SWAP2 SWAP1 DUP3 SLOAD SWAP1 PUSH1 0x3 SHL SWAP2 PUSH20 0xFFFFFFFFFFFFFFFFFFFFFFFFFFFFFFFFFFFFFFFF SWAP3 DUP4 DUP2 SHL SWAP4 DUP5 SWAP3 AND SWAP1 SHL AND SWAP2 NOT AND OR SWAP1 SSTORE JUMP JUMPDEST DUP6 SWAP1 PUSH20 0xFFFFFFFFFFFFFFFFFFFFFFFFFFFFFFFFFFFFFFFF AND PUSH1 0x0 MSTORE PUSH1 0x20 MSTORE PUSH1 0x40 PUSH1 0x0 KECCAK256 SWAP1 JUMP JUMPDEST SSTORE CODESIZE DUP1 DUP1 PUSH2 0x4D7 JUMP JUMPDEST SWAP1 POP ISZERO CODESIZE PUSH2 0x48B JUMP JUMPDEST POP DUP1 PUSH2 0x43C JUMP JUMPDEST DUP1 PUSH2 0x5C2 PUSH2 0x5C8 SWAP3 PUSH2 0x1335 JUMP JUMPDEST DUP1 PUSH2 0x270 JUMP JUMPDEST CODESIZE PUSH2 0x3DA JUMP JUMPDEST PUSH2 0x5D6 PUSH2 0x1397 JUMP JUMPDEST PUSH2 0x3D5 JUMP JUMPDEST POP CALLVALUE PUSH2 0xE JUMPI PUSH1 0x20 PUSH32 0xFFFFFFFFFFFFFFFFFFFFFFFFFFFFFFFFFFFFFFFFFFFFFFFFFFFFFFFFFFFFFFFC CALLDATASIZE ADD SLT PUSH2 0xE JUMPI PUSH1 0x20 PUSH2 0x615 PUSH2 0x134 JUMP JUMPDEST PUSH2 0x61E DUP2 PUSH2 0x1574 JUMP JUMPDEST PUSH20 0xFFFFFFFFFFFFFFFFFFFFFFFFFFFFFFFFFFFFFFFF DUP1 SWAP2 AND PUSH1 0x0 MSTORE PUSH1 0x0 DUP3 MSTORE PUSH1 0x1 PUSH1 0x40 PUSH1 0x0 KECCAK256 ADD SLOAD AND PUSH1 0x40 MLOAD SWAP1 DUP2 MSTORE RETURN JUMPDEST POP CALLVALUE PUSH2 0xE JUMPI PUSH1 0x40 PUSH32 0xFFFFFFFFFFFFFFFFFFFFFFFFFFFFFFFFFFFFFFFFFFFFFFFFFFFFFFFFFFFFFFFC CALLDATASIZE ADD SLT PUSH2 0xE JUMPI PUSH1 0x20 PUSH2 0x6E8 PUSH2 0x68C PUSH2 0x134 JUMP JUMPDEST PUSH20 0xFFFFFFFFFFFFFFFFFFFFFFFFFFFFFFFFFFFFFFFF PUSH2 0x6A9 PUSH2 0x157 JUMP JUMPDEST SWAP2 PUSH2 0x6B3 DUP2 PUSH2 0x1574 JUMP JUMPDEST AND PUSH1 0x0 MSTORE PUSH1 0x0 DUP4 MSTORE PUSH1 0x4 PUSH1 0x40 PUSH1 0x0 KECCAK256 ADD SWAP1 PUSH20 0xFFFFFFFFFFFFFFFFFFFFFFFFFFFFFFFFFFFFFFFF AND PUSH1 0x0 MSTORE PUSH1 0x20 MSTORE PUSH1 0x40 PUSH1 0x0 KECCAK256 SWAP1 JUMP JUMPDEST SLOAD ISZERO ISZERO PUSH1 0x40 MLOAD SWAP1 DUP2 MSTORE RETURN JUMPDEST POP CALLVALUE PUSH2 0xE JUMPI PUSH1 0x20 PUSH32 0xFFFFFFFFFFFFFFFFFFFFFFFFFFFFFFFFFFFFFFFFFFFFFFFFFFFFFFFFFFFFFFFC CALLDATASIZE ADD SLT PUSH2 0xE JUMPI PUSH20 0xFFFFFFFFFFFFFFFFFFFFFFFFFFFFFFFFFFFFFFFF PUSH2 0x740 PUSH2 0x134 JUMP JUMPDEST PUSH2 0x749 DUP2 PUSH2 0x1574 JUMP JUMPDEST AND PUSH1 0x0 MSTORE PUSH1 0x0 PUSH1 0x20 MSTORE PUSH1 0x20 PUSH1 0x3 PUSH1 0x40 PUSH1 0x0 KECCAK256 ADD SLOAD PUSH1 0x40 MLOAD SWAP1 DUP2 MSTORE RETURN JUMPDEST POP CALLVALUE PUSH2 0xE JUMPI PUSH1 0x20 PUSH32 0xFFFFFFFFFFFFFFFFFFFFFFFFFFFFFFFFFFFFFFFFFFFFFFFFFFFFFFFFFFFFFFFC CALLDATASIZE ADD SLT PUSH2 0xE JUMPI PUSH2 0x79D PUSH2 0x134 JUMP JUMPDEST PUSH2 0x7A6 DUP2 PUSH2 0x1574 JUMP JUMPDEST PUSH2 0x80C PUSH2 0x7F3 PUSH1 0x2 PUSH2 0x7D8 DUP5 PUSH20 0xFFFFFFFFFFFFFFFFFFFFFFFFFFFFFFFFFFFFFFFF AND PUSH1 0x0 MSTORE PUSH1 0x0 PUSH1 0x20 MSTORE PUSH1 0x40 PUSH1 0x0 KECCAK256 SWAP1 JUMP JUMPDEST ADD SLOAD PUSH20 0xFFFFFFFFFFFFFFFFFFFFFFFFFFFFFFFFFFFFFFFF AND SWAP1 JUMP JUMPDEST PUSH20 0xFFFFFFFFFFFFFFFFFFFFFFFFFFFFFFFFFFFFFFFF AND SWAP1 JUMP JUMPDEST CALLER SUB PUSH2 0x976 JUMPI PUSH2 0x47F SWAP1 PUSH1 0x0 PUSH32 0x11A3CF439FB225BFE74225716B6774765670EC1060E3796802E62139D69974DA DUP2 PUSH1 0x40 MLOAD LOG2 PUSH2 0x896 PUSH1 0x2 PUSH2 0x86D DUP4 PUSH20 0xFFFFFFFFFFFFFFFFFFFFFFFFFFFFFFFFFFFFFFFF AND PUSH1 0x0 MSTORE PUSH1 0x0 PUSH1 0x20 MSTORE PUSH1 0x40 PUSH1 0x0 KECCAK256 SWAP1 JUMP JUMPDEST ADD PUSH32 0xFFFFFFFFFFFFFFFFFFFFFFFF0000000000000000000000000000000000000000 DUP2 SLOAD AND SWAP1 SSTORE JUMP JUMPDEST PUSH20 0xFFFFFFFFFFFFFFFFFFFFFFFFFFFFFFFFFFFFFFFF CALLER SWAP1 DUP1 PUSH2 0x8DD PUSH1 0x1 PUSH2 0x7D8 DUP7 PUSH20 0xFFFFFFFFFFFFFFFFFFFFFFFFFFFFFFFFFFFFFFFF AND PUSH1 0x0 MSTORE PUSH1 0x0 PUSH1 0x20 MSTORE PUSH1 0x40 PUSH1 0x0 KECCAK256 SWAP1 JUMP JUMPDEST AND SWAP1 DUP4 AND PUSH32 0xC8894F26F396CE8C004245C8B7CD1B92103A6E4302FCBAB883987149AC01B7EC PUSH1 0x0 PUSH1 0x40 MLOAD LOG4 PUSH1 0x1 PUSH2 0x935 CALLER SWAP3 PUSH20 0xFFFFFFFFFFFFFFFFFFFFFFFFFFFFFFFFFFFFFFFF AND PUSH1 0x0 MSTORE PUSH1 0x0 PUSH1 0x20 MSTORE PUSH1 0x40 PUSH1 0x0 KECCAK256 SWAP1 JUMP JUMPDEST ADD SWAP1 PUSH20 0xFFFFFFFFFFFFFFFFFFFFFFFFFFFFFFFFFFFFFFFF AND PUSH32 0xFFFFFFFFFFFFFFFFFFFFFFFF0000000000000000000000000000000000000000 DUP3 SLOAD AND OR SWAP1 SSTORE JUMP JUMPDEST PUSH1 0x40 MLOAD PUSH32 0x88C3A11500000000000000000000000000000000000000000000000000000000 DUP2 MSTORE PUSH20 0xFFFFFFFFFFFFFFFFFFFFFFFFFFFFFFFFFFFFFFFF SWAP2 SWAP1 SWAP2 AND PUSH1 0x4 DUP3 ADD MSTORE PUSH1 0x24 SWAP1 REVERT JUMPDEST POP CALLVALUE PUSH2 0xE JUMPI PUSH1 0x40 PUSH32 0xFFFFFFFFFFFFFFFFFFFFFFFFFFFFFFFFFFFFFFFFFFFFFFFFFFFFFFFFFFFFFFFC CALLDATASIZE ADD SLT PUSH2 0xE JUMPI PUSH2 0x9F7 PUSH2 0x134 JUMP JUMPDEST PUSH2 0x9FF PUSH2 0x157 JUMP JUMPDEST SWAP1 PUSH2 0xA09 DUP2 PUSH2 0x1505 JUMP JUMPDEST PUSH20 0xFFFFFFFFFFFFFFFFFFFFFFFFFFFFFFFFFFFFFFFF DUP1 DUP4 AND SWAP1 DUP2 ISZERO PUSH2 0xB09 JUMPI POP PUSH2 0xA5B PUSH2 0x7F3 PUSH1 0x2 PUSH2 0x7D8 DUP6 PUSH20 0xFFFFFFFFFFFFFFFFFFFFFFFFFFFFFFFFFFFFFFFF AND PUSH1 0x0 MSTORE PUSH1 0x0 PUSH1 0x20 MSTORE PUSH1 0x40 PUSH1 0x0 KECCAK256 SWAP1 JUMP JUMPDEST DUP2 EQ PUSH2 0xAB9 JUMPI PUSH2 0x935 PUSH2 0x47F SWAP4 SWAP3 PUSH1 0x2 SWAP3 PUSH32 0x11A3CF439FB225BFE74225716B6774765670EC1060E3796802E62139D69974DA PUSH1 0x0 PUSH1 0x40 MLOAD LOG2 PUSH20 0xFFFFFFFFFFFFFFFFFFFFFFFFFFFFFFFFFFFFFFFF AND PUSH1 0x0 MSTORE PUSH1 0x0 PUSH1 0x20 MSTORE PUSH1 0x40 PUSH1 0x0 KECCAK256 SWAP1 JUMP JUMPDEST POP PUSH1 0x40 MLOAD PUSH32 0xCBC080CA00000000000000000000000000000000000000000000000000000000 DUP2 MSTORE PUSH20 0xFFFFFFFFFFFFFFFFFFFFFFFFFFFFFFFFFFFFFFFF SWAP2 DUP3 AND PUSH1 0x4 DUP3 ADD MSTORE SWAP2 AND PUSH1 0x24 DUP3 ADD MSTORE PUSH1 0x44 SWAP1 REVERT JUMPDEST DUP3 PUSH1 0x24 SWAP2 PUSH1 0x40 MLOAD SWAP2 PUSH32 0xA388D26300000000000000000000000000000000000000000000000000000000 DUP4 MSTORE AND PUSH1 0x4 DUP3 ADD MSTORE REVERT JUMPDEST POP CALLVALUE PUSH2 0xE JUMPI PUSH1 0x20 PUSH32 0xFFFFFFFFFFFFFFFFFFFFFFFFFFFFFFFFFFFFFFFFFFFFFFFFFFFFFFFFFFFFFFFC CALLDATASIZE ADD SLT PUSH2 0xE JUMPI PUSH1 0x40 MLOAD PUSH32 0xFF00000000000000000000000000000000000000000000000000000000000000 PUSH1 0x20 DUP3 ADD SWAP1 DUP2 MSTORE ADDRESS PUSH1 0x60 SHL PUSH32 0xFFFFFFFFFFFFFFFFFFFFFFFFFFFFFFFFFFFFFFFF000000000000000000000000 AND PUSH1 0x21 DUP4 ADD MSTORE PUSH1 0x4 CALLDATALOAD PUSH1 0x35 DUP4 ADD MSTORE PUSH32 0x0 PUSH1 0x55 DUP4 ADD MSTORE PUSH20 0xFFFFFFFFFFFFFFFFFFFFFFFFFFFFFFFFFFFFFFFF SWAP2 PUSH2 0xC3B DUP2 PUSH1 0x75 DUP2 ADD JUMPDEST SUB PUSH32 0xFFFFFFFFFFFFFFFFFFFFFFFFFFFFFFFFFFFFFFFFFFFFFFFFFFFFFFFFFFFFFFE0 DUP2 ADD DUP4 MSTORE DUP3 PUSH2 0x1356 JUMP JUMPDEST MLOAD SWAP1 KECCAK256 PUSH1 0x40 DUP1 MLOAD SWAP3 SWAP1 SWAP2 AND PUSH20 0xFFFFFFFFFFFFFFFFFFFFFFFFFFFFFFFFFFFFFFFF DUP2 AND DUP4 MSTORE EXTCODEHASH PUSH32 0x0 EQ PUSH1 0x20 DUP4 ADD MSTORE SWAP1 RETURN JUMPDEST POP CALLVALUE PUSH2 0xE JUMPI PUSH1 0x40 DUP1 PUSH32 0xFFFFFFFFFFFFFFFFFFFFFFFFFFFFFFFFFFFFFFFFFFFFFFFFFFFFFFFFFFFFFFFC CALLDATASIZE ADD SLT PUSH2 0xE JUMPI PUSH1 0x4 CALLDATALOAD PUSH2 0xCC6 PUSH2 0x157 JUMP JUMPDEST PUSH20 0xFFFFFFFFFFFFFFFFFFFFFFFFFFFFFFFFFFFFFFFF SWAP2 DUP3 DUP3 AND SWAP1 DUP2 ISZERO PUSH2 0xF9F JUMPI CALLER DUP2 PUSH1 0x60 SHR SUB PUSH2 0xF76 JUMPI PUSH2 0xDA4 PUSH2 0x7F3 DUP7 MLOAD PUSH1 0x20 DUP2 ADD SWAP1 PUSH2 0xD88 DUP2 PUSH2 0xC0F PUSH32 0x0 DUP9 ADDRESS DUP8 SWAP2 PUSH32 0xFFFFFFFFFFFFFFFFFFFFFFFFFFFFFFFFFFFFFFFF000000000000000000000000 PUSH1 0x55 SWAP5 SWAP3 PUSH32 0xFF00000000000000000000000000000000000000000000000000000000000000 DUP6 MSTORE PUSH1 0x60 SHL AND PUSH1 0x1 DUP5 ADD MSTORE PUSH1 0x15 DUP4 ADD MSTORE PUSH1 0x35 DUP3 ADD MSTORE ADD SWAP1 JUMP JUMPDEST MLOAD SWAP1 KECCAK256 PUSH20 0xFFFFFFFFFFFFFFFFFFFFFFFFFFFFFFFFFFFFFFFF AND SWAP1 JUMP JUMPDEST SWAP3 DUP4 EXTCODEHASH PUSH32 0x0 EQ PUSH2 0xF30 JUMPI SWAP5 PUSH32 0x4397AF6128D529B8AE0442F99DB1296D5136062597A15BBC61C1B2A6431A7D15 PUSH2 0xECA DUP4 DUP1 PUSH1 0x0 SWAP10 PUSH2 0x23B SWAP9 SWAP8 SWAP7 DUP7 MLOAD DUP1 PUSH2 0xC9F DUP1 DUP3 ADD SWAP1 DUP3 DUP3 LT PUSH8 0xFFFFFFFFFFFFFFFF DUP4 GT OR PUSH2 0xF23 JUMPI JUMPDEST PUSH2 0x15A0 DUP4 CODECOPY SUB SWAP1 DUP14 CREATE2 ISZERO PUSH2 0xF16 JUMPI JUMPDEST PUSH2 0xE9C PUSH2 0xE57 DUP10 PUSH20 0xFFFFFFFFFFFFFFFFFFFFFFFFFFFFFFFFFFFFFFFF AND PUSH1 0x0 MSTORE PUSH1 0x0 PUSH1 0x20 MSTORE PUSH1 0x40 PUSH1 0x0 KECCAK256 SWAP1 JUMP JUMPDEST SWAP2 PUSH1 0x1 DUP4 ADD SWAP1 PUSH20 0xFFFFFFFFFFFFFFFFFFFFFFFFFFFFFFFFFFFFFFFF AND PUSH32 0xFFFFFFFFFFFFFFFFFFFFFFFF0000000000000000000000000000000000000000 DUP3 SLOAD AND OR SWAP1 SSTORE JUMP JUMPDEST SSTORE DUP4 MLOAD PUSH20 0xFFFFFFFFFFFFFFFFFFFFFFFFFFFFFFFFFFFFFFFF DUP8 AND DUP2 MSTORE PUSH1 0x20 DUP2 ADD SWAP2 SWAP1 SWAP2 MSTORE SWAP1 DUP2 SWAP1 PUSH1 0x40 DUP3 ADD SWAP1 JUMP JUMPDEST SUB SWAP1 LOG1 MLOAD SWAP5 DUP6 SWAP5 DUP4 AND PUSH32 0xC8894F26F396CE8C004245C8B7CD1B92103A6E4302FCBAB883987149AC01B7EC DUP3 DUP8 LOG4 PUSH20 0xFFFFFFFFFFFFFFFFFFFFFFFFFFFFFFFFFFFFFFFF AND DUP3 MSTORE PUSH1 0x20 DUP3 ADD SWAP1 JUMP JUMPDEST PUSH2 0xF1E PUSH2 0x1397 JUMP JUMPDEST PUSH2 0xE2A JUMP JUMPDEST PUSH2 0xF2B PUSH2 0x1305 JUMP JUMPDEST PUSH2 0xE1B JUMP JUMPDEST DUP6 MLOAD PUSH32 0x6328CCB200000000000000000000000000000000000000000000000000000000 DUP2 MSTORE PUSH20 0xFFFFFFFFFFFFFFFFFFFFFFFFFFFFFFFFFFFFFFFF DUP6 AND PUSH1 0x4 DUP3 ADD MSTORE PUSH1 0x24 SWAP1 REVERT JUMPDEST PUSH1 0x4 DUP6 MLOAD PUSH32 0xCB6E534400000000000000000000000000000000000000000000000000000000 DUP2 MSTORE REVERT JUMPDEST PUSH1 0x4 DUP6 MLOAD PUSH32 0x99FAAA0400000000000000000000000000000000000000000000000000000000 DUP2 MSTORE REVERT JUMPDEST POP CALLVALUE PUSH2 0xE JUMPI PUSH1 0x20 PUSH32 0xFFFFFFFFFFFFFFFFFFFFFFFFFFFFFFFFFFFFFFFFFFFFFFFFFFFFFFFFFFFFFFFC CALLDATASIZE ADD SLT PUSH2 0xE JUMPI PUSH2 0x1000 PUSH2 0x134 JUMP JUMPDEST PUSH2 0x1009 DUP2 PUSH2 0x1505 JUMP JUMPDEST PUSH20 0xFFFFFFFFFFFFFFFFFFFFFFFFFFFFFFFFFFFFFFFF SWAP1 DUP2 DUP2 AND PUSH1 0x0 SWAP3 DUP2 DUP5 MSTORE DUP4 PUSH1 0x20 MSTORE PUSH1 0x2 PUSH1 0x40 DUP6 KECCAK256 ADD SLOAD AND ISZERO PUSH2 0x10BA JUMPI POP PUSH2 0x108E PUSH1 0x2 SWAP2 DUP4 PUSH32 0x11A3CF439FB225BFE74225716B6774765670EC1060E3796802E62139D69974DA DUP2 PUSH1 0x40 MLOAD LOG2 PUSH20 0xFFFFFFFFFFFFFFFFFFFFFFFFFFFFFFFFFFFFFFFF AND PUSH1 0x0 MSTORE PUSH1 0x0 PUSH1 0x20 MSTORE PUSH1 0x40 PUSH1 0x0 KECCAK256 SWAP1 JUMP JUMPDEST ADD PUSH32 0xFFFFFFFFFFFFFFFFFFFFFFFF0000000000000000000000000000000000000000 DUP2 SLOAD AND SWAP1 SSTORE PUSH1 0x40 MLOAD RETURN JUMPDEST PUSH1 0x24 SWAP1 PUSH1 0x40 MLOAD SWAP1 PUSH32 0x6B01361600000000000000000000000000000000000000000000000000000000 DUP3 MSTORE PUSH1 0x4 DUP3 ADD MSTORE REVERT JUMPDEST PUSH1 0x20 SWAP1 DUP2 PUSH1 0x40 DUP2 DUP4 ADD SWAP3 DUP3 DUP2 MSTORE DUP6 MLOAD DUP1 SWAP5 MSTORE ADD SWAP4 ADD SWAP2 PUSH1 0x0 JUMPDEST DUP3 DUP2 LT PUSH2 0x1112 JUMPI POP POP POP POP SWAP1 JUMP JUMPDEST DUP4 MLOAD PUSH20 0xFFFFFFFFFFFFFFFFFFFFFFFFFFFFFFFFFFFFFFFF AND DUP6 MSTORE SWAP4 DUP2 ADD SWAP4 SWAP3 DUP2 ADD SWAP3 PUSH1 0x1 ADD PUSH2 0x1104 JUMP JUMPDEST POP CALLVALUE PUSH2 0xE JUMPI PUSH1 0x20 DUP1 PUSH32 0xFFFFFFFFFFFFFFFFFFFFFFFFFFFFFFFFFFFFFFFFFFFFFFFFFFFFFFFFFFFFFFFC CALLDATASIZE ADD SLT PUSH2 0xE JUMPI PUSH2 0x1175 PUSH2 0x134 JUMP JUMPDEST SWAP1 PUSH2 0x117F DUP3 PUSH2 0x1574 JUMP JUMPDEST PUSH20 0xFFFFFFFFFFFFFFFFFFFFFFFFFFFFFFFFFFFFFFFF SWAP2 DUP3 PUSH1 0x0 SWAP2 AND DUP2 MSTORE DUP1 DUP3 MSTORE PUSH1 0x3 PUSH1 0x40 DUP3 KECCAK256 ADD SWAP3 PUSH1 0x40 MLOAD SWAP1 DUP2 SWAP4 DUP1 DUP7 SLOAD SWAP4 DUP5 DUP2 MSTORE ADD SWAP6 DUP5 MSTORE DUP1 DUP5 KECCAK256 SWAP4 SWAP2 JUMPDEST DUP4 DUP4 LT PUSH2 0x11E1 JUMPI PUSH2 0x23B DUP7 PUSH2 0x11D5 DUP2 DUP11 SUB DUP3 PUSH2 0x1356 JUMP JUMPDEST PUSH1 0x40 MLOAD SWAP2 DUP3 SWAP2 DUP3 PUSH2 0x10EB JUMP JUMPDEST DUP5 SLOAD DUP2 AND DUP8 MSTORE SWAP6 DUP2 ADD SWAP6 PUSH1 0x1 SWAP5 DUP6 ADD SWAP5 SWAP1 SWAP3 ADD SWAP2 PUSH2 0x11BE JUMP JUMPDEST POP CALLVALUE PUSH2 0xE JUMPI PUSH1 0x20 PUSH32 0xFFFFFFFFFFFFFFFFFFFFFFFFFFFFFFFFFFFFFFFFFFFFFFFFFFFFFFFFFFFFFFFC CALLDATASIZE ADD SLT PUSH2 0xE JUMPI PUSH1 0x20 PUSH2 0x1234 PUSH2 0x134 JUMP JUMPDEST PUSH2 0x123D DUP2 PUSH2 0x1574 JUMP JUMPDEST PUSH20 0xFFFFFFFFFFFFFFFFFFFFFFFFFFFFFFFFFFFFFFFF DUP1 SWAP2 AND PUSH1 0x0 MSTORE PUSH1 0x0 DUP3 MSTORE PUSH1 0x2 PUSH1 0x40 PUSH1 0x0 KECCAK256 ADD SLOAD AND PUSH1 0x40 MLOAD SWAP1 DUP2 MSTORE RETURN JUMPDEST POP CALLVALUE PUSH2 0xE JUMPI PUSH1 0x20 PUSH32 0xFFFFFFFFFFFFFFFFFFFFFFFFFFFFFFFFFFFFFFFFFFFFFFFFFFFFFFFFFFFFFFFC CALLDATASIZE ADD SLT PUSH2 0xE JUMPI PUSH20 0xFFFFFFFFFFFFFFFFFFFFFFFFFFFFFFFFFFFFFFFF PUSH2 0x12BB PUSH2 0x134 JUMP JUMPDEST AND PUSH1 0x0 MSTORE PUSH1 0x0 PUSH1 0x20 MSTORE PUSH1 0x40 PUSH1 0x0 KECCAK256 SLOAD DUP1 ISZERO PUSH2 0x12DB JUMPI PUSH1 0x20 SWAP1 PUSH1 0x40 MLOAD SWAP1 DUP2 MSTORE RETURN JUMPDEST PUSH1 0x4 PUSH1 0x40 MLOAD PUSH32 0x4CA8209000000000000000000000000000000000000000000000000000000000 DUP2 MSTORE REVERT JUMPDEST POP PUSH32 0x4E487B7100000000000000000000000000000000000000000000000000000000 PUSH1 0x0 MSTORE PUSH1 0x41 PUSH1 0x4 MSTORE PUSH1 0x24 PUSH1 0x0 REVERT JUMPDEST PUSH8 0xFFFFFFFFFFFFFFFF DUP2 GT PUSH2 0x1349 JUMPI PUSH1 0x40 MSTORE JUMP JUMPDEST PUSH2 0x1351 PUSH2 0x1305 JUMP JUMPDEST PUSH1 0x40 MSTORE JUMP JUMPDEST SWAP1 PUSH1 0x1F PUSH32 0xFFFFFFFFFFFFFFFFFFFFFFFFFFFFFFFFFFFFFFFFFFFFFFFFFFFFFFFFFFFFFFE0 SWAP2 ADD AND DUP2 ADD SWAP1 DUP2 LT PUSH8 0xFFFFFFFFFFFFFFFF DUP3 GT OR PUSH2 0x1349 JUMPI PUSH1 0x40 MSTORE JUMP JUMPDEST POP PUSH1 0x40 MLOAD RETURNDATASIZE PUSH1 0x0 DUP3 RETURNDATACOPY RETURNDATASIZE SWAP1 REVERT JUMPDEST PUSH1 0x1 DUP2 LT PUSH2 0x13D1 JUMPI PUSH32 0xFFFFFFFFFFFFFFFFFFFFFFFFFFFFFFFFFFFFFFFFFFFFFFFFFFFFFFFFFFFFFFFF ADD SWAP1 JUMP JUMPDEST PUSH32 0x4E487B7100000000000000000000000000000000000000000000000000000000 PUSH1 0x0 MSTORE PUSH1 0x11 PUSH1 0x4 MSTORE PUSH1 0x24 PUSH1 0x0 REVERT JUMPDEST DUP1 SLOAD DUP3 LT ISZERO PUSH2 0x1418 JUMPI PUSH1 0x0 MSTORE PUSH1 0x20 PUSH1 0x0 KECCAK256 ADD SWAP1 PUSH1 0x0 SWAP1 JUMP JUMPDEST PUSH32 0x4E487B7100000000000000000000000000000000000000000000000000000000 PUSH1 0x0 MSTORE PUSH1 0x32 PUSH1 0x4 MSTORE PUSH1 0x24 PUSH1 0x0 REVERT JUMPDEST DUP1 SLOAD DUP1 ISZERO PUSH2 0x149F JUMPI PUSH32 0xFFFFFFFFFFFFFFFFFFFFFFFFFFFFFFFFFFFFFFFFFFFFFFFFFFFFFFFFFFFFFFFF ADD SWAP1 PUSH2 0x147C DUP3 DUP3 PUSH2 0x1400 JUMP JUMPDEST PUSH20 0xFFFFFFFFFFFFFFFFFFFFFFFFFFFFFFFFFFFFFFFF DUP3 SLOAD SWAP2 PUSH1 0x3 SHL SHL NOT AND SWAP1 SSTORE SSTORE JUMP JUMPDEST PUSH32 0x4E487B7100000000000000000000000000000000000000000000000000000000 PUSH1 0x0 MSTORE PUSH1 0x31 PUSH1 0x4 MSTORE PUSH1 0x24 PUSH1 0x0 REVERT JUMPDEST SWAP1 PUSH2 0x544 PUSH2 0x14F6 SWAP3 DUP1 SLOAD SWAP1 PUSH9 0x10000000000000000 DUP3 LT ISZERO PUSH2 0x14F8 JUMPI JUMPDEST PUSH1 0x1 DUP3 ADD DUP2 SSTORE PUSH2 0x1400 JUMP JUMPDEST JUMP JUMPDEST PUSH2 0x1500 PUSH2 0x1305 JUMP JUMPDEST PUSH2 0x14EB JUMP JUMPDEST PUSH2 0x150E DUP2 PUSH2 0x1574 JUMP JUMPDEST PUSH20 0xFFFFFFFFFFFFFFFFFFFFFFFFFFFFFFFFFFFFFFFF DUP1 SWAP2 AND SWAP1 DUP2 PUSH1 0x0 MSTORE PUSH1 0x0 PUSH1 0x20 MSTORE PUSH1 0x1 PUSH1 0x40 PUSH1 0x0 KECCAK256 ADD SLOAD AND CALLER SUB PUSH2 0x1543 JUMPI POP JUMP JUMPDEST PUSH1 0x24 SWAP1 PUSH1 0x40 MLOAD SWAP1 PUSH32 0xD4ED9A1700000000000000000000000000000000000000000000000000000000 DUP3 MSTORE PUSH1 0x4 DUP3 ADD MSTORE REVERT JUMPDEST PUSH20 0xFFFFFFFFFFFFFFFFFFFFFFFFFFFFFFFFFFFFFFFF AND PUSH1 0x0 MSTORE PUSH1 0x0 PUSH1 0x20 MSTORE PUSH1 0x40 PUSH1 0x0 KECCAK256 SLOAD ISZERO PUSH2 0x12DB JUMPI JUMP INVALID PUSH1 0xA0 DUP1 PUSH1 0x40 MSTORE CALLVALUE PUSH2 0x23 JUMPI CALLER PUSH1 0x80 MSTORE PUSH2 0xC76 SWAP1 DUP2 PUSH2 0x29 DUP3 CODECOPY PUSH1 0x80 MLOAD DUP2 PUSH2 0x3C5 ADD MSTORE RETURN JUMPDEST PUSH1 0x0 DUP1 REVERT INVALID PUSH1 0x80 PUSH1 0x40 MSTORE PUSH1 0x4 CALLDATASIZE LT ISZERO PUSH2 0x13 JUMPI JUMPDEST PUSH1 0x0 DUP1 REVERT JUMPDEST PUSH1 0x0 DUP1 CALLDATALOAD PUSH1 0xE0 SHR SWAP1 DUP2 PUSH4 0x4CE34AA2 EQ PUSH2 0x66 JUMPI POP DUP1 PUSH4 0x899E104C EQ PUSH2 0x5D JUMPI DUP1 PUSH4 0x8DF25D92 EQ PUSH2 0x54 JUMPI PUSH4 0xC4E8FCB5 EQ PUSH2 0x4C JUMPI PUSH1 0x0 DUP1 REVERT JUMPDEST PUSH2 0xE PUSH2 0x362 JUMP JUMPDEST POP PUSH2 0xE PUSH2 0x27F JUMP JUMPDEST POP PUSH2 0xE PUSH2 0x1AB JUMP JUMPDEST CALLVALUE PUSH2 0x146 JUMPI PUSH1 0x20 PUSH32 0xFFFFFFFFFFFFFFFFFFFFFFFFFFFFFFFFFFFFFFFFFFFFFFFFFFFFFFFFFFFFFFFC CALLDATASIZE ADD SLT PUSH2 0x146 JUMPI PUSH1 0x4 CALLDATALOAD PUSH8 0xFFFFFFFFFFFFFFFF DUP2 GT PUSH2 0x142 JUMPI PUSH2 0xB5 SWAP1 CALLDATASIZE SWAP1 PUSH1 0x4 ADD PUSH2 0x149 JUMP JUMPDEST SWAP2 CALLER DUP2 MSTORE DUP1 PUSH1 0x20 MSTORE PUSH1 0x40 DUP2 KECCAK256 SLOAD ISZERO PUSH2 0x116 JUMPI JUMPDEST DUP3 DUP2 LT PUSH2 0xFA JUMPI PUSH1 0x40 MLOAD PUSH32 0x4CE34AA200000000000000000000000000000000000000000000000000000000 DUP2 MSTORE PUSH1 0x20 SWAP1 RETURN JUMPDEST DUP1 PUSH2 0x110 PUSH2 0x10B PUSH1 0x1 SWAP4 DUP7 DUP7 PUSH2 0x532 JUMP JUMPDEST PUSH2 0x5C4 JUMP JUMPDEST ADD PUSH2 0xC8 JUMP JUMPDEST DUP1 PUSH32 0x93DAADF200000000000000000000000000000000000000000000000000000000 PUSH1 0x24 SWAP3 MSTORE CALLER PUSH1 0x4 MSTORE REVERT JUMPDEST POP DUP1 REVERT JUMPDEST DUP1 REVERT JUMPDEST SWAP2 DUP2 PUSH1 0x1F DUP5 ADD SLT ISZERO PUSH2 0xE JUMPI DUP3 CALLDATALOAD SWAP2 PUSH8 0xFFFFFFFFFFFFFFFF DUP4 GT PUSH2 0xE JUMPI PUSH1 0x20 DUP1 DUP6 ADD SWAP5 PUSH1 0xC0 DUP6 MUL ADD ADD GT PUSH2 0xE JUMPI JUMP JUMPDEST SWAP2 DUP2 PUSH1 0x1F DUP5 ADD SLT ISZERO PUSH2 0xE JUMPI DUP3 CALLDATALOAD SWAP2 PUSH8 0xFFFFFFFFFFFFFFFF DUP4 GT PUSH2 0xE JUMPI PUSH1 0x20 DUP1 DUP6 ADD SWAP5 DUP5 PUSH1 0x5 SHL ADD ADD GT PUSH2 0xE JUMPI JUMP JUMPDEST POP CALLVALUE PUSH2 0xE JUMPI PUSH1 0x40 PUSH32 0xFFFFFFFFFFFFFFFFFFFFFFFFFFFFFFFFFFFFFFFFFFFFFFFFFFFFFFFFFFFFFFFC CALLDATASIZE ADD SLT PUSH2 0xE JUMPI PUSH8 0xFFFFFFFFFFFFFFFF PUSH1 0x4 CALLDATALOAD DUP2 DUP2 GT PUSH2 0xE JUMPI PUSH2 0x1FC SWAP1 CALLDATASIZE SWAP1 PUSH1 0x4 ADD PUSH2 0x149 JUMP JUMPDEST SWAP2 PUSH1 0x24 CALLDATALOAD SWAP1 DUP2 GT PUSH2 0xE JUMPI PUSH2 0x215 SWAP1 CALLDATASIZE SWAP1 PUSH1 0x4 ADD PUSH2 0x17A JUMP JUMPDEST SWAP2 SWAP1 SWAP3 PUSH1 0x0 CALLER DUP2 MSTORE DUP1 PUSH1 0x20 MSTORE PUSH1 0x40 DUP2 KECCAK256 SLOAD ISZERO PUSH2 0x116 JUMPI JUMPDEST DUP2 DUP2 LT PUSH2 0x268 JUMPI PUSH2 0x23D DUP5 DUP7 PUSH2 0xACB JUMP JUMPDEST PUSH1 0x40 MLOAD PUSH32 0x899E104C00000000000000000000000000000000000000000000000000000000 DUP2 MSTORE PUSH1 0x20 SWAP1 RETURN JUMPDEST DUP1 PUSH2 0x279 PUSH2 0x10B PUSH1 0x1 SWAP4 DUP6 DUP8 PUSH2 0x532 JUMP JUMPDEST ADD PUSH2 0x22C JUMP JUMPDEST POP CALLVALUE PUSH2 0xE JUMPI PUSH1 0x20 PUSH32 0xFFFFFFFFFFFFFFFFFFFFFFFFFFFFFFFFFFFFFFFFFFFFFFFFFFFFFFFFFFFFFFFC CALLDATASIZE ADD SLT PUSH2 0xE JUMPI PUSH1 0x4 CALLDATALOAD PUSH8 0xFFFFFFFFFFFFFFFF DUP2 GT PUSH2 0xE JUMPI PUSH2 0x2CF SWAP1 CALLDATASIZE SWAP1 PUSH1 0x4 ADD PUSH2 0x17A JUMP JUMPDEST CALLER PUSH1 0x0 MSTORE PUSH1 0x0 PUSH1 0x20 MSTORE PUSH1 0x40 PUSH1 0x0 KECCAK256 SLOAD ISZERO PUSH2 0x316 JUMPI PUSH2 0x2EC SWAP2 PUSH2 0xACB JUMP JUMPDEST PUSH1 0x20 PUSH1 0x40 MLOAD PUSH32 0x8DF25D9200000000000000000000000000000000000000000000000000000000 DUP2 MSTORE RETURN JUMPDEST PUSH32 0x93DAADF200000000000000000000000000000000000000000000000000000000 PUSH1 0x0 MSTORE CALLER PUSH1 0x4 MSTORE PUSH1 0x24 PUSH1 0x0 REVERT JUMPDEST PUSH20 0xFFFFFFFFFFFFFFFFFFFFFFFFFFFFFFFFFFFFFFFF DUP2 AND SUB PUSH2 0xE JUMPI JUMP JUMPDEST POP CALLVALUE PUSH2 0xE JUMPI PUSH1 0x40 PUSH32 0xFFFFFFFFFFFFFFFFFFFFFFFFFFFFFFFFFFFFFFFFFFFFFFFFFFFFFFFFFFFFFFFC CALLDATASIZE ADD SLT PUSH2 0xE JUMPI PUSH1 0x4 CALLDATALOAD PUSH2 0x39E DUP2 PUSH2 0x344 JUMP JUMPDEST PUSH1 0x24 CALLDATALOAD SWAP1 DUP2 ISZERO ISZERO DUP1 DUP4 SUB PUSH2 0xE JUMPI PUSH20 0xFFFFFFFFFFFFFFFFFFFFFFFFFFFFFFFFFFFFFFFF SWAP1 DUP2 PUSH32 0x0 AND CALLER SUB PUSH2 0x508 JUMPI PUSH2 0x41F PUSH2 0x418 DUP5 PUSH20 0xFFFFFFFFFFFFFFFFFFFFFFFFFFFFFFFFFFFFFFFF AND PUSH1 0x0 MSTORE PUSH1 0x0 PUSH1 0x20 MSTORE PUSH1 0x40 PUSH1 0x0 KECCAK256 SWAP1 JUMP JUMPDEST SLOAD PUSH1 0xFF AND SWAP1 JUMP JUMPDEST ISZERO ISZERO EQ PUSH2 0x4B6 JUMPI DUP2 PUSH2 0x4A6 DUP5 PUSH2 0x476 PUSH32 0xAE63067D43AC07563B7EB8DB6595635FC77F1578A2A5EA06BA91B63E2AFA37E2 SWAP6 PUSH20 0xFFFFFFFFFFFFFFFFFFFFFFFFFFFFFFFFFFFFFFFF AND PUSH1 0x0 MSTORE PUSH1 0x0 PUSH1 0x20 MSTORE PUSH1 0x40 PUSH1 0x0 KECCAK256 SWAP1 JUMP JUMPDEST SWAP1 PUSH1 0xFF PUSH32 0xFFFFFFFFFFFFFFFFFFFFFFFFFFFFFFFFFFFFFFFFFFFFFFFFFFFFFFFFFFFFFF00 DUP4 SLOAD AND SWAP2 ISZERO ISZERO AND OR SWAP1 SSTORE JUMP JUMPDEST PUSH1 0x40 MLOAD SWAP4 ISZERO ISZERO DUP5 MSTORE AND SWAP2 PUSH1 0x20 SWAP1 LOG2 STOP JUMPDEST POP PUSH1 0x40 MLOAD PUSH32 0x924E341E00000000000000000000000000000000000000000000000000000000 DUP2 MSTORE PUSH20 0xFFFFFFFFFFFFFFFFFFFFFFFFFFFFFFFFFFFFFFFF SWAP2 SWAP1 SWAP2 AND PUSH1 0x4 DUP3 ADD MSTORE SWAP1 ISZERO ISZERO PUSH1 0x24 DUP3 ADD MSTORE PUSH1 0x44 SWAP1 REVERT JUMPDEST PUSH1 0x4 PUSH1 0x40 MLOAD PUSH32 0x6D5769BE00000000000000000000000000000000000000000000000000000000 DUP2 MSTORE REVERT JUMPDEST SWAP2 SWAP1 DUP2 LT ISZERO PUSH2 0x542 JUMPI PUSH1 0xC0 MUL ADD SWAP1 JUMP JUMPDEST PUSH32 0x4E487B7100000000000000000000000000000000000000000000000000000000 PUSH1 0x0 MSTORE PUSH1 0x32 PUSH1 0x4 MSTORE PUSH1 0x24 PUSH1 0x0 REVERT JUMPDEST PUSH1 0x4 GT ISZERO PUSH2 0x57B JUMPI JUMP JUMPDEST PUSH32 0x4E487B7100000000000000000000000000000000000000000000000000000000 PUSH1 0x0 MSTORE PUSH1 0x21 PUSH1 0x4 MSTORE PUSH1 0x24 PUSH1 0x0 REVERT JUMPDEST CALLDATALOAD PUSH1 0x4 DUP2 LT ISZERO PUSH2 0xE JUMPI SWAP1 JUMP JUMPDEST CALLDATALOAD PUSH2 0x5C1 DUP2 PUSH2 0x344 JUMP JUMPDEST SWAP1 JUMP JUMPDEST PUSH1 0x1 PUSH2 0x5CF DUP3 PUSH2 0x5AA JUMP JUMPDEST PUSH2 0x5D8 DUP2 PUSH2 0x571 JUMP JUMPDEST SUB PUSH2 0x613 JUMPI DUP1 PUSH2 0x5ED PUSH1 0x20 PUSH2 0x611 SWAP4 ADD PUSH2 0x5B7 JUMP JUMPDEST SWAP1 PUSH2 0x5FA PUSH1 0x40 DUP3 ADD PUSH2 0x5B7 JUMP JUMPDEST PUSH1 0xA0 PUSH2 0x608 PUSH1 0x60 DUP5 ADD PUSH2 0x5B7 JUMP JUMPDEST SWAP3 ADD CALLDATALOAD SWAP3 PUSH2 0x712 JUMP JUMPDEST JUMP JUMPDEST PUSH1 0x2 PUSH2 0x61E DUP3 PUSH2 0x5AA JUMP JUMPDEST PUSH2 0x627 DUP2 PUSH2 0x571 JUMP JUMPDEST SUB PUSH2 0x696 JUMPI PUSH1 0x1 PUSH1 0xA0 DUP3 ADD CALLDATALOAD SUB PUSH2 0x66C JUMPI DUP1 PUSH2 0x648 PUSH1 0x20 PUSH2 0x611 SWAP4 ADD PUSH2 0x5B7 JUMP JUMPDEST SWAP1 PUSH2 0x655 PUSH1 0x40 DUP3 ADD PUSH2 0x5B7 JUMP JUMPDEST PUSH1 0x80 PUSH2 0x663 PUSH1 0x60 DUP5 ADD PUSH2 0x5B7 JUMP JUMPDEST SWAP3 ADD CALLDATALOAD SWAP3 PUSH2 0x882 JUMP JUMPDEST PUSH1 0x4 PUSH1 0x40 MLOAD PUSH32 0xEFCC00B100000000000000000000000000000000000000000000000000000000 DUP2 MSTORE REVERT JUMPDEST PUSH1 0x3 PUSH2 0x6A1 DUP3 PUSH2 0x5AA JUMP JUMPDEST PUSH2 0x6AA DUP2 PUSH2 0x571 JUMP JUMPDEST SUB PUSH2 0x6E8 JUMPI DUP1 PUSH2 0x6BF PUSH1 0x20 PUSH2 0x611 SWAP4 ADD PUSH2 0x5B7 JUMP JUMPDEST PUSH2 0x6CB PUSH1 0x40 DUP4 ADD PUSH2 0x5B7 JUMP JUMPDEST PUSH2 0x6D7 PUSH1 0x60 DUP5 ADD PUSH2 0x5B7 JUMP JUMPDEST SWAP1 PUSH1 0x80 PUSH1 0xA0 DUP6 ADD CALLDATALOAD SWAP5 ADD CALLDATALOAD SWAP3 PUSH2 0x990 JUMP JUMPDEST PUSH1 0x4 PUSH1 0x40 MLOAD PUSH32 0x7932F1FC00000000000000000000000000000000000000000000000000000000 DUP2 MSTORE REVERT JUMPDEST SWAP1 SWAP3 PUSH1 0x40 MLOAD SWAP3 PUSH1 0x0 SWAP5 PUSH32 0x23B872DD00000000000000000000000000000000000000000000000000000000 DUP7 MSTORE DUP1 PUSH1 0x4 MSTORE DUP2 PUSH1 0x24 MSTORE DUP3 PUSH1 0x44 MSTORE PUSH1 0x20 DUP7 PUSH1 0x64 DUP2 DUP1 DUP9 GAS CALL DUP1 RETURNDATASIZE ISZERO PUSH1 0x1F RETURNDATASIZE GT PUSH1 0x1 DUP11 MLOAD EQ AND OR AND RETURNDATASIZE ISZERO ISZERO DUP2 AND ISZERO PUSH2 0x77C JUMPI JUMPDEST POP POP POP POP POP POP PUSH1 0x40 MSTORE PUSH1 0x60 MSTORE JUMP JUMPDEST DUP1 DUP7 EXTCODESIZE ISZERO ISZERO AND PUSH2 0x76E JUMPI SWAP1 DUP8 SWAP6 SWAP7 SWAP2 ISZERO PUSH2 0x7BC JUMPI PUSH1 0x24 DUP7 DUP9 PUSH32 0x5F15D67200000000000000000000000000000000000000000000000000000000 DUP3 MSTORE PUSH1 0x4 MSTORE REVERT JUMPDEST ISZERO PUSH2 0x7F6 JUMPI POP PUSH1 0x84 SWAP5 PUSH32 0x9889192300000000000000000000000000000000000000000000000000000000 DUP6 MSTORE PUSH1 0x4 MSTORE PUSH1 0x24 MSTORE PUSH1 0x44 MSTORE PUSH1 0x64 MSTORE REVERT JUMPDEST RETURNDATASIZE PUSH2 0x835 JUMPI JUMPDEST POP PUSH1 0xA4 SWAP5 PUSH32 0xF486BC8700000000000000000000000000000000000000000000000000000000 DUP6 MSTORE PUSH1 0x4 MSTORE PUSH1 0x24 MSTORE PUSH1 0x44 MSTORE DUP2 PUSH1 0x64 MSTORE PUSH1 0x84 MSTORE REVERT JUMPDEST PUSH1 0x1F RETURNDATASIZE ADD PUSH1 0x5 SHR SWAP1 PUSH1 0x5 SHR SWAP1 DUP1 PUSH1 0x3 MUL SWAP2 DUP1 DUP3 GT PUSH2 0x869 JUMPI JUMPDEST POP POP PUSH1 0x20 GAS SWAP2 ADD LT PUSH2 0x860 JUMPI DUP6 PUSH2 0x7FC JUMP JUMPDEST DUP4 RETURNDATASIZE DUP2 DUP1 RETURNDATACOPY RETURNDATASIZE SWAP1 REVERT JUMPDEST DUP1 DUP1 PUSH1 0x3 SWAP3 MUL DUP4 DUP1 MUL SUB PUSH1 0x9 SHR SWAP3 SUB MUL ADD ADD DUP7 DUP1 PUSH2 0x84E JUMP JUMPDEST SWAP1 SWAP3 DUP2 EXTCODESIZE ISZERO PUSH2 0x962 JUMPI PUSH1 0x40 MLOAD SWAP3 PUSH1 0x0 SWAP5 PUSH32 0x23B872DD00000000000000000000000000000000000000000000000000000000 DUP7 MSTORE DUP1 PUSH1 0x4 MSTORE DUP2 PUSH1 0x24 MSTORE DUP3 PUSH1 0x44 MSTORE DUP6 DUP1 PUSH1 0x64 DUP2 DUP1 DUP9 GAS CALL ISZERO PUSH2 0x8DB JUMPI POP POP POP POP PUSH1 0x40 MSTORE PUSH1 0x60 MSTORE JUMP JUMPDEST DUP6 SWAP4 SWAP5 RETURNDATASIZE PUSH2 0x91E JUMPI JUMPDEST POP PUSH1 0xA4 SWAP5 PUSH32 0xF486BC8700000000000000000000000000000000000000000000000000000000 DUP6 MSTORE PUSH1 0x4 MSTORE PUSH1 0x24 MSTORE PUSH1 0x44 MSTORE PUSH1 0x64 MSTORE PUSH1 0x1 PUSH1 0x84 MSTORE REVERT JUMPDEST PUSH1 0x1F RETURNDATASIZE ADD PUSH1 0x5 SHR SWAP1 PUSH1 0x5 SHR SWAP1 DUP1 PUSH1 0x3 MUL SWAP2 DUP1 DUP3 GT PUSH2 0x949 JUMPI JUMPDEST POP POP PUSH1 0x20 GAS SWAP2 ADD LT PUSH2 0x860 JUMPI DUP6 PUSH2 0x8E4 JUMP JUMPDEST DUP1 DUP1 PUSH1 0x3 SWAP3 MUL DUP4 DUP1 MUL SUB PUSH1 0x9 SHR SWAP3 SUB MUL ADD ADD DUP7 DUP1 PUSH2 0x937 JUMP JUMPDEST POP PUSH32 0x5F15D67200000000000000000000000000000000000000000000000000000000 PUSH1 0x0 MSTORE PUSH1 0x4 MSTORE PUSH1 0x24 PUSH1 0x0 REVERT JUMPDEST SWAP3 SWAP1 SWAP4 DUP4 EXTCODESIZE ISZERO PUSH2 0xA9D JUMPI PUSH1 0x40 MLOAD SWAP4 PUSH1 0x80 MLOAD SWAP2 PUSH1 0xA0 MLOAD SWAP4 PUSH1 0xC0 MLOAD SWAP6 PUSH1 0x0 SWAP9 PUSH32 0xF242432A00000000000000000000000000000000000000000000000000000000 DUP11 MSTORE DUP1 PUSH1 0x4 MSTORE DUP2 PUSH1 0x24 MSTORE DUP3 PUSH1 0x44 MSTORE DUP4 PUSH1 0x64 MSTORE PUSH1 0xA0 PUSH1 0x84 MSTORE DUP10 PUSH1 0xA4 MSTORE DUP10 DUP1 PUSH1 0xC4 DUP2 DUP1 DUP10 GAS CALL ISZERO PUSH2 0xA0D JUMPI POP POP POP POP POP PUSH1 0x80 MSTORE PUSH1 0xA0 MSTORE PUSH1 0xC0 MSTORE PUSH1 0x40 MSTORE PUSH1 0x60 MSTORE JUMP JUMPDEST DUP10 SWAP5 SWAP6 POP DUP9 RETURNDATASIZE PUSH2 0xA50 JUMPI JUMPDEST POP PUSH1 0xA4 SWAP6 PUSH32 0xF486BC8700000000000000000000000000000000000000000000000000000000 DUP7 MSTORE PUSH1 0x4 MSTORE PUSH1 0x24 MSTORE PUSH1 0x44 MSTORE PUSH1 0x64 MSTORE PUSH1 0x84 MSTORE REVERT JUMPDEST PUSH1 0x1F RETURNDATASIZE ADD PUSH1 0x5 SHR SWAP1 PUSH1 0x5 SHR SWAP1 DUP1 PUSH1 0x3 MUL SWAP2 DUP1 DUP3 GT PUSH2 0xA84 JUMPI JUMPDEST POP POP PUSH1 0x20 GAS SWAP2 ADD LT PUSH2 0xA7B JUMPI DUP7 PUSH2 0xA18 JUMP JUMPDEST DUP5 RETURNDATASIZE DUP2 DUP1 RETURNDATACOPY RETURNDATASIZE SWAP1 REVERT JUMPDEST DUP1 DUP1 PUSH1 0x3 SWAP3 MUL DUP4 DUP1 MUL SUB PUSH1 0x9 SHR SWAP3 SUB MUL ADD ADD DUP8 DUP1 PUSH2 0xA69 JUMP JUMPDEST DUP4 PUSH32 0x5F15D67200000000000000000000000000000000000000000000000000000000 PUSH1 0x0 MSTORE PUSH1 0x4 MSTORE PUSH1 0x24 PUSH1 0x0 REVERT JUMPDEST SWAP1 DUP2 PUSH1 0x20 SWAP1 PUSH32 0x2EB2C2D600000000000000000000000000000000000000000000000000000000 DUP3 MSTORE PUSH1 0x0 JUMPDEST DUP4 DUP2 LT PUSH2 0xB09 JUMPI POP POP POP POP POP PUSH1 0x80 PUSH1 0x40 MSTORE JUMP JUMPDEST DUP5 CALLDATALOAD DUP3 ADD SWAP5 DUP6 CALLDATALOAD SWAP1 DUP2 EXTCODESIZE ISZERO PUSH2 0x962 JUMPI PUSH1 0xA0 SWAP2 DUP3 DUP9 ADD SWAP3 DUP4 CALLDATALOAD PUSH1 0x5 SWAP2 DUP2 DUP4 SHL SWAP5 DUP12 PUSH1 0xC0 DUP1 SWAP8 PUSH1 0x80 SWAP5 DUP2 DUP4 ADD DUP7 DUP6 ADD CALLDATALOAD EQ SWAP1 PUSH1 0x60 DUP6 ADD CALLDATALOAD EQ AND SWAP3 ADD ADD CALLDATALOAD DUP5 EQ AND ISZERO PUSH2 0xC16 JUMPI DUP10 ADD SWAP11 DUP10 ADD PUSH1 0x24 CALLDATACOPY PUSH1 0x6 SHL SWAP4 PUSH1 0xE0 DUP6 ADD PUSH1 0xA4 MSTORE PUSH2 0x104 DUP6 ADD SWAP5 PUSH1 0x0 DUP7 MSTORE PUSH1 0x40 ADD SWAP1 PUSH1 0xC4 CALLDATACOPY PUSH1 0x0 DUP1 DUP6 DUP10 DUP3 DUP7 GAS CALL ISZERO PUSH2 0xB8A JUMPI POP POP POP POP PUSH1 0x1 ADD PUSH2 0xAF6 JUMP JUMPDEST DUP7 SWAP4 SWAP5 POP RETURNDATASIZE PUSH2 0xBCB JUMPI JUMPDEST POP PUSH32 0xAFC445E200000000000000000000000000000000000000000000000000000000 PUSH1 0x0 MSTORE PUSH1 0x4 MSTORE PUSH1 0x64 MSTORE PUSH1 0x84 SWAP1 DUP2 MLOAD ADD SWAP1 MSTORE PUSH1 0x0 REVERT JUMPDEST DUP5 PUSH1 0x1F RETURNDATASIZE ADD DUP3 SHR SWAP2 SHR SWAP1 PUSH1 0x3 DUP2 DUP2 MUL SWAP3 DUP1 DUP4 GT PUSH2 0xBFF JUMPI JUMPDEST POP POP POP DUP4 GAS SWAP2 ADD LT PUSH2 0xBF5 JUMPI DUP5 PUSH2 0xB94 JUMP JUMPDEST RETURNDATASIZE PUSH1 0x0 DUP1 RETURNDATACOPY RETURNDATASIZE PUSH1 0x0 REVERT JUMPDEST DUP1 DUP1 MUL DUP4 DUP1 MUL SUB PUSH1 0x9 SHR SWAP3 SUB MUL ADD ADD DUP6 DUP1 DUP1 PUSH2 0xBE3 JUMP JUMPDEST PUSH32 0xEBA2084C00000000000000000000000000000000000000000000000000000000 PUSH1 0x0 MSTORE PUSH1 0x4 PUSH1 0x0 REVERT INVALID LOG2 PUSH5 0x6970667358 0x22 SLT KECCAK256 0xC5 0xC8 0xD0 SLOAD 0xD9 0xD5 0xDF PUSH29 0x3530EAB1C32506AAD1FCB6772C1457F0DA5443AD9E91B4A364736F6C63 NUMBER STOP ADDMOD 0xE STOP CALLER LOG2 PUSH5 0x6970667358 0x22 SLT KECCAK256 BALANCE 0xE2 0xDE PUSH2 0xA9E3 0x5E SWAP15 DUP8 0xD5 0xEE 0xF6 LOG3 PUSH12 0x45A0BAB54C4031FD01A0F81 CODESIZE 0xAF 0xCE EXTCODECOPY 0xEC BALANCE PUSH5 0x736F6C6343 STOP ADDMOD 0xE STOP CALLER PUSH1 0xA0 DUP1 PUSH1 0x40 MSTORE CALLVALUE PUSH2 0x23 JUMPI CALLER PUSH1 0x80 MSTORE PUSH2 0xC76 SWAP1 DUP2 PUSH2 0x29 DUP3 CODECOPY PUSH1 0x80 MLOAD DUP2 PUSH2 0x3C5 ADD MSTORE RETURN JUMPDEST PUSH1 0x0 DUP1 REVERT INVALID PUSH1 0x80 PUSH1 0x40 MSTORE PUSH1 0x4 CALLDATASIZE LT ISZERO PUSH2 0x13 JUMPI JUMPDEST PUSH1 0x0 DUP1 REVERT JUMPDEST PUSH1 0x0 DUP1 CALLDATALOAD PUSH1 0xE0 SHR SWAP1 DUP2 PUSH4 0x4CE34AA2 EQ PUSH2 0x66 JUMPI POP DUP1 PUSH4 0x899E104C EQ PUSH2 0x5D JUMPI DUP1 PUSH4 0x8DF25D92 EQ PUSH2 0x54 JUMPI PUSH4 0xC4E8FCB5 EQ PUSH2 0x4C JUMPI PUSH1 0x0 DUP1 REVERT JUMPDEST PUSH2 0xE PUSH2 0x362 JUMP JUMPDEST POP PUSH2 0xE PUSH2 0x27F JUMP JUMPDEST POP PUSH2 0xE PUSH2 0x1AB JUMP JUMPDEST CALLVALUE PUSH2 0x146 JUMPI PUSH1 0x20 PUSH32 0xFFFFFFFFFFFFFFFFFFFFFFFFFFFFFFFFFFFFFFFFFFFFFFFFFFFFFFFFFFFFFFFC CALLDATASIZE ADD SLT PUSH2 0x146 JUMPI PUSH1 0x4 CALLDATALOAD PUSH8 0xFFFFFFFFFFFFFFFF DUP2 GT PUSH2 0x142 JUMPI PUSH2 0xB5 SWAP1 CALLDATASIZE SWAP1 PUSH1 0x4 ADD PUSH2 0x149 JUMP JUMPDEST SWAP2 CALLER DUP2 MSTORE DUP1 PUSH1 0x20 MSTORE PUSH1 0x40 DUP2 KECCAK256 SLOAD ISZERO PUSH2 0x116 JUMPI JUMPDEST DUP3 DUP2 LT PUSH2 0xFA JUMPI PUSH1 0x40 MLOAD PUSH32 0x4CE34AA200000000000000000000000000000000000000000000000000000000 DUP2 MSTORE PUSH1 0x20 SWAP1 RETURN JUMPDEST DUP1 PUSH2 0x110 PUSH2 0x10B PUSH1 0x1 SWAP4 DUP7 DUP7 PUSH2 0x532 JUMP JUMPDEST PUSH2 0x5C4 JUMP JUMPDEST ADD PUSH2 0xC8 JUMP JUMPDEST DUP1 PUSH32 0x93DAADF200000000000000000000000000000000000000000000000000000000 PUSH1 0x24 SWAP3 MSTORE CALLER PUSH1 0x4 MSTORE REVERT JUMPDEST POP DUP1 REVERT JUMPDEST DUP1 REVERT JUMPDEST SWAP2 DUP2 PUSH1 0x1F DUP5 ADD SLT ISZERO PUSH2 0xE JUMPI DUP3 CALLDATALOAD SWAP2 PUSH8 0xFFFFFFFFFFFFFFFF DUP4 GT PUSH2 0xE JUMPI PUSH1 0x20 DUP1 DUP6 ADD SWAP5 PUSH1 0xC0 DUP6 MUL ADD ADD GT PUSH2 0xE JUMPI JUMP JUMPDEST SWAP2 DUP2 PUSH1 0x1F DUP5 ADD SLT ISZERO PUSH2 0xE JUMPI DUP3 CALLDATALOAD SWAP2 PUSH8 0xFFFFFFFFFFFFFFFF DUP4 GT PUSH2 0xE JUMPI PUSH1 0x20 DUP1 DUP6 ADD SWAP5 DUP5 PUSH1 0x5 SHL ADD ADD GT PUSH2 0xE JUMPI JUMP JUMPDEST POP CALLVALUE PUSH2 0xE JUMPI PUSH1 0x40 PUSH32 0xFFFFFFFFFFFFFFFFFFFFFFFFFFFFFFFFFFFFFFFFFFFFFFFFFFFFFFFFFFFFFFFC CALLDATASIZE ADD SLT PUSH2 0xE JUMPI PUSH8 0xFFFFFFFFFFFFFFFF PUSH1 0x4 CALLDATALOAD DUP2 DUP2 GT PUSH2 0xE JUMPI PUSH2 0x1FC SWAP1 CALLDATASIZE SWAP1 PUSH1 0x4 ADD PUSH2 0x149 JUMP JUMPDEST SWAP2 PUSH1 0x24 CALLDATALOAD SWAP1 DUP2 GT PUSH2 0xE JUMPI PUSH2 0x215 SWAP1 CALLDATASIZE SWAP1 PUSH1 0x4 ADD PUSH2 0x17A JUMP JUMPDEST SWAP2 SWAP1 SWAP3 PUSH1 0x0 CALLER DUP2 MSTORE DUP1 PUSH1 0x20 MSTORE PUSH1 0x40 DUP2 KECCAK256 SLOAD ISZERO PUSH2 0x116 JUMPI JUMPDEST DUP2 DUP2 LT PUSH2 0x268 JUMPI PUSH2 0x23D DUP5 DUP7 PUSH2 0xACB JUMP JUMPDEST PUSH1 0x40 MLOAD PUSH32 0x899E104C00000000000000000000000000000000000000000000000000000000 DUP2 MSTORE PUSH1 0x20 SWAP1 RETURN JUMPDEST DUP1 PUSH2 0x279 PUSH2 0x10B PUSH1 0x1 SWAP4 DUP6 DUP8 PUSH2 0x532 JUMP JUMPDEST ADD PUSH2 0x22C JUMP JUMPDEST POP CALLVALUE PUSH2 0xE JUMPI PUSH1 0x20 PUSH32 0xFFFFFFFFFFFFFFFFFFFFFFFFFFFFFFFFFFFFFFFFFFFFFFFFFFFFFFFFFFFFFFFC CALLDATASIZE ADD SLT PUSH2 0xE JUMPI PUSH1 0x4 CALLDATALOAD PUSH8 0xFFFFFFFFFFFFFFFF DUP2 GT PUSH2 0xE JUMPI PUSH2 0x2CF SWAP1 CALLDATASIZE SWAP1 PUSH1 0x4 ADD PUSH2 0x17A JUMP JUMPDEST CALLER PUSH1 0x0 MSTORE PUSH1 0x0 PUSH1 0x20 MSTORE PUSH1 0x40 PUSH1 0x0 KECCAK256 SLOAD ISZERO PUSH2 0x316 JUMPI PUSH2 0x2EC SWAP2 PUSH2 0xACB JUMP JUMPDEST PUSH1 0x20 PUSH1 0x40 MLOAD PUSH32 0x8DF25D9200000000000000000000000000000000000000000000000000000000 DUP2 MSTORE RETURN JUMPDEST PUSH32 0x93DAADF200000000000000000000000000000000000000000000000000000000 PUSH1 0x0 MSTORE CALLER PUSH1 0x4 MSTORE PUSH1 0x24 PUSH1 0x0 REVERT JUMPDEST PUSH20 0xFFFFFFFFFFFFFFFFFFFFFFFFFFFFFFFFFFFFFFFF DUP2 AND SUB PUSH2 0xE JUMPI JUMP JUMPDEST POP CALLVALUE PUSH2 0xE JUMPI PUSH1 0x40 PUSH32 0xFFFFFFFFFFFFFFFFFFFFFFFFFFFFFFFFFFFFFFFFFFFFFFFFFFFFFFFFFFFFFFFC CALLDATASIZE ADD SLT PUSH2 0xE JUMPI PUSH1 0x4 CALLDATALOAD PUSH2 0x39E DUP2 PUSH2 0x344 JUMP JUMPDEST PUSH1 0x24 CALLDATALOAD SWAP1 DUP2 ISZERO ISZERO DUP1 DUP4 SUB PUSH2 0xE JUMPI PUSH20 0xFFFFFFFFFFFFFFFFFFFFFFFFFFFFFFFFFFFFFFFF SWAP1 DUP2 PUSH32 0x0 AND CALLER SUB PUSH2 0x508 JUMPI PUSH2 0x41F PUSH2 0x418 DUP5 PUSH20 0xFFFFFFFFFFFFFFFFFFFFFFFFFFFFFFFFFFFFFFFF AND PUSH1 0x0 MSTORE PUSH1 0x0 PUSH1 0x20 MSTORE PUSH1 0x40 PUSH1 0x0 KECCAK256 SWAP1 JUMP JUMPDEST SLOAD PUSH1 0xFF AND SWAP1 JUMP JUMPDEST ISZERO ISZERO EQ PUSH2 0x4B6 JUMPI DUP2 PUSH2 0x4A6 DUP5 PUSH2 0x476 PUSH32 0xAE63067D43AC07563B7EB8DB6595635FC77F1578A2A5EA06BA91B63E2AFA37E2 SWAP6 PUSH20 0xFFFFFFFFFFFFFFFFFFFFFFFFFFFFFFFFFFFFFFFF AND PUSH1 0x0 MSTORE PUSH1 0x0 PUSH1 0x20 MSTORE PUSH1 0x40 PUSH1 0x0 KECCAK256 SWAP1 JUMP JUMPDEST SWAP1 PUSH1 0xFF PUSH32 0xFFFFFFFFFFFFFFFFFFFFFFFFFFFFFFFFFFFFFFFFFFFFFFFFFFFFFFFFFFFFFF00 DUP4 SLOAD AND SWAP2 ISZERO ISZERO AND OR SWAP1 SSTORE JUMP JUMPDEST PUSH1 0x40 MLOAD SWAP4 ISZERO ISZERO DUP5 MSTORE AND SWAP2 PUSH1 0x20 SWAP1 LOG2 STOP JUMPDEST POP PUSH1 0x40 MLOAD PUSH32 0x924E341E00000000000000000000000000000000000000000000000000000000 DUP2 MSTORE PUSH20 0xFFFFFFFFFFFFFFFFFFFFFFFFFFFFFFFFFFFFFFFF SWAP2 SWAP1 SWAP2 AND PUSH1 0x4 DUP3 ADD MSTORE SWAP1 ISZERO ISZERO PUSH1 0x24 DUP3 ADD MSTORE PUSH1 0x44 SWAP1 REVERT JUMPDEST PUSH1 0x4 PUSH1 0x40 MLOAD PUSH32 0x6D5769BE00000000000000000000000000000000000000000000000000000000 DUP2 MSTORE REVERT JUMPDEST SWAP2 SWAP1 DUP2 LT ISZERO PUSH2 0x542 JUMPI PUSH1 0xC0 MUL ADD SWAP1 JUMP JUMPDEST PUSH32 0x4E487B7100000000000000000000000000000000000000000000000000000000 PUSH1 0x0 MSTORE PUSH1 0x32 PUSH1 0x4 MSTORE PUSH1 0x24 PUSH1 0x0 REVERT JUMPDEST PUSH1 0x4 GT ISZERO PUSH2 0x57B JUMPI JUMP JUMPDEST PUSH32 0x4E487B7100000000000000000000000000000000000000000000000000000000 PUSH1 0x0 MSTORE PUSH1 0x21 PUSH1 0x4 MSTORE PUSH1 0x24 PUSH1 0x0 REVERT JUMPDEST CALLDATALOAD PUSH1 0x4 DUP2 LT ISZERO PUSH2 0xE JUMPI SWAP1 JUMP JUMPDEST CALLDATALOAD PUSH2 0x5C1 DUP2 PUSH2 0x344 JUMP JUMPDEST SWAP1 JUMP JUMPDEST PUSH1 0x1 PUSH2 0x5CF DUP3 PUSH2 0x5AA JUMP JUMPDEST PUSH2 0x5D8 DUP2 PUSH2 0x571 JUMP JUMPDEST SUB PUSH2 0x613 JUMPI DUP1 PUSH2 0x5ED PUSH1 0x20 PUSH2 0x611 SWAP4 ADD PUSH2 0x5B7 JUMP JUMPDEST SWAP1 PUSH2 0x5FA PUSH1 0x40 DUP3 ADD PUSH2 0x5B7 JUMP JUMPDEST PUSH1 0xA0 PUSH2 0x608 PUSH1 0x60 DUP5 ADD PUSH2 0x5B7 JUMP JUMPDEST SWAP3 ADD CALLDATALOAD SWAP3 PUSH2 0x712 JUMP JUMPDEST JUMP JUMPDEST PUSH1 0x2 PUSH2 0x61E DUP3 PUSH2 0x5AA JUMP JUMPDEST PUSH2 0x627 DUP2 PUSH2 0x571 JUMP JUMPDEST SUB PUSH2 0x696 JUMPI PUSH1 0x1 PUSH1 0xA0 DUP3 ADD CALLDATALOAD SUB PUSH2 0x66C JUMPI DUP1 PUSH2 0x648 PUSH1 0x20 PUSH2 0x611 SWAP4 ADD PUSH2 0x5B7 JUMP JUMPDEST SWAP1 PUSH2 0x655 PUSH1 0x40 DUP3 ADD PUSH2 0x5B7 JUMP JUMPDEST PUSH1 0x80 PUSH2 0x663 PUSH1 0x60 DUP5 ADD PUSH2 0x5B7 JUMP JUMPDEST SWAP3 ADD CALLDATALOAD SWAP3 PUSH2 0x882 JUMP JUMPDEST PUSH1 0x4 PUSH1 0x40 MLOAD PUSH32 0xEFCC00B100000000000000000000000000000000000000000000000000000000 DUP2 MSTORE REVERT JUMPDEST PUSH1 0x3 PUSH2 0x6A1 DUP3 PUSH2 0x5AA JUMP JUMPDEST PUSH2 0x6AA DUP2 PUSH2 0x571 JUMP JUMPDEST SUB PUSH2 0x6E8 JUMPI DUP1 PUSH2 0x6BF PUSH1 0x20 PUSH2 0x611 SWAP4 ADD PUSH2 0x5B7 JUMP JUMPDEST PUSH2 0x6CB PUSH1 0x40 DUP4 ADD PUSH2 0x5B7 JUMP JUMPDEST PUSH2 0x6D7 PUSH1 0x60 DUP5 ADD PUSH2 0x5B7 JUMP JUMPDEST SWAP1 PUSH1 0x80 PUSH1 0xA0 DUP6 ADD CALLDATALOAD SWAP5 ADD CALLDATALOAD SWAP3 PUSH2 0x990 JUMP JUMPDEST PUSH1 0x4 PUSH1 0x40 MLOAD PUSH32 0x7932F1FC00000000000000000000000000000000000000000000000000000000 DUP2 MSTORE REVERT JUMPDEST SWAP1 SWAP3 PUSH1 0x40 MLOAD SWAP3 PUSH1 0x0 SWAP5 PUSH32 0x23B872DD00000000000000000000000000000000000000000000000000000000 DUP7 MSTORE DUP1 PUSH1 0x4 MSTORE DUP2 PUSH1 0x24 MSTORE DUP3 PUSH1 0x44 MSTORE PUSH1 0x20 DUP7 PUSH1 0x64 DUP2 DUP1 DUP9 GAS CALL DUP1 RETURNDATASIZE ISZERO PUSH1 0x1F RETURNDATASIZE GT PUSH1 0x1 DUP11 MLOAD EQ AND OR AND RETURNDATASIZE ISZERO ISZERO DUP2 AND ISZERO PUSH2 0x77C JUMPI JUMPDEST POP POP POP POP POP POP PUSH1 0x40 MSTORE PUSH1 0x60 MSTORE JUMP JUMPDEST DUP1 DUP7 EXTCODESIZE ISZERO ISZERO AND PUSH2 0x76E JUMPI SWAP1 DUP8 SWAP6 SWAP7 SWAP2 ISZERO PUSH2 0x7BC JUMPI PUSH1 0x24 DUP7 DUP9 PUSH32 0x5F15D67200000000000000000000000000000000000000000000000000000000 DUP3 MSTORE PUSH1 0x4 MSTORE REVERT JUMPDEST ISZERO PUSH2 0x7F6 JUMPI POP PUSH1 0x84 SWAP5 PUSH32 0x9889192300000000000000000000000000000000000000000000000000000000 DUP6 MSTORE PUSH1 0x4 MSTORE PUSH1 0x24 MSTORE PUSH1 0x44 MSTORE PUSH1 0x64 MSTORE REVERT JUMPDEST RETURNDATASIZE PUSH2 0x835 JUMPI JUMPDEST POP PUSH1 0xA4 SWAP5 PUSH32 0xF486BC8700000000000000000000000000000000000000000000000000000000 DUP6 MSTORE PUSH1 0x4 MSTORE PUSH1 0x24 MSTORE PUSH1 0x44 MSTORE DUP2 PUSH1 0x64 MSTORE PUSH1 0x84 MSTORE REVERT JUMPDEST PUSH1 0x1F RETURNDATASIZE ADD PUSH1 0x5 SHR SWAP1 PUSH1 0x5 SHR SWAP1 DUP1 PUSH1 0x3 MUL SWAP2 DUP1 DUP3 GT PUSH2 0x869 JUMPI JUMPDEST POP POP PUSH1 0x20 GAS SWAP2 ADD LT PUSH2 0x860 JUMPI DUP6 PUSH2 0x7FC JUMP JUMPDEST DUP4 RETURNDATASIZE DUP2 DUP1 RETURNDATACOPY RETURNDATASIZE SWAP1 REVERT JUMPDEST DUP1 DUP1 PUSH1 0x3 SWAP3 MUL DUP4 DUP1 MUL SUB PUSH1 0x9 SHR SWAP3 SUB MUL ADD ADD DUP7 DUP1 PUSH2 0x84E JUMP JUMPDEST SWAP1 SWAP3 DUP2 EXTCODESIZE ISZERO PUSH2 0x962 JUMPI PUSH1 0x40 MLOAD SWAP3 PUSH1 0x0 SWAP5 PUSH32 0x23B872DD00000000000000000000000000000000000000000000000000000000 DUP7 MSTORE DUP1 PUSH1 0x4 MSTORE DUP2 PUSH1 0x24 MSTORE DUP3 PUSH1 0x44 MSTORE DUP6 DUP1 PUSH1 0x64 DUP2 DUP1 DUP9 GAS CALL ISZERO PUSH2 0x8DB JUMPI POP POP POP POP PUSH1 0x40 MSTORE PUSH1 0x60 MSTORE JUMP JUMPDEST DUP6 SWAP4 SWAP5 RETURNDATASIZE PUSH2 0x91E JUMPI JUMPDEST POP PUSH1 0xA4 SWAP5 PUSH32 0xF486BC8700000000000000000000000000000000000000000000000000000000 DUP6 MSTORE PUSH1 0x4 MSTORE PUSH1 0x24 MSTORE PUSH1 0x44 MSTORE PUSH1 0x64 MSTORE PUSH1 0x1 PUSH1 0x84 MSTORE REVERT JUMPDEST PUSH1 0x1F RETURNDATASIZE ADD PUSH1 0x5 SHR SWAP1 PUSH1 0x5 SHR SWAP1 DUP1 PUSH1 0x3 MUL SWAP2 DUP1 DUP3 GT PUSH2 0x949 JUMPI JUMPDEST POP POP PUSH1 0x20 GAS SWAP2 ADD LT PUSH2 0x860 JUMPI DUP6 PUSH2 0x8E4 JUMP JUMPDEST DUP1 DUP1 PUSH1 0x3 SWAP3 MUL DUP4 DUP1 MUL SUB PUSH1 0x9 SHR SWAP3 SUB MUL ADD ADD DUP7 DUP1 PUSH2 0x937 JUMP JUMPDEST POP PUSH32 0x5F15D67200000000000000000000000000000000000000000000000000000000 PUSH1 0x0 MSTORE PUSH1 0x4 MSTORE PUSH1 0x24 PUSH1 0x0 REVERT JUMPDEST SWAP3 SWAP1 SWAP4 DUP4 EXTCODESIZE ISZERO PUSH2 0xA9D JUMPI PUSH1 0x40 MLOAD SWAP4 PUSH1 0x80 MLOAD SWAP2 PUSH1 0xA0 MLOAD SWAP4 PUSH1 0xC0 MLOAD SWAP6 PUSH1 0x0 SWAP9 PUSH32 0xF242432A00000000000000000000000000000000000000000000000000000000 DUP11 MSTORE DUP1 PUSH1 0x4 MSTORE DUP2 PUSH1 0x24 MSTORE DUP3 PUSH1 0x44 MSTORE DUP4 PUSH1 0x64 MSTORE PUSH1 0xA0 PUSH1 0x84 MSTORE DUP10 PUSH1 0xA4 MSTORE DUP10 DUP1 PUSH1 0xC4 DUP2 DUP1 DUP10 GAS CALL ISZERO PUSH2 0xA0D JUMPI POP POP POP POP POP PUSH1 0x80 MSTORE PUSH1 0xA0 MSTORE PUSH1 0xC0 MSTORE PUSH1 0x40 MSTORE PUSH1 0x60 MSTORE JUMP JUMPDEST DUP10 SWAP5 SWAP6 POP DUP9 RETURNDATASIZE PUSH2 0xA50 JUMPI JUMPDEST POP PUSH1 0xA4 SWAP6 PUSH32 0xF486BC8700000000000000000000000000000000000000000000000000000000 DUP7 MSTORE PUSH1 0x4 MSTORE PUSH1 0x24 MSTORE PUSH1 0x44 MSTORE PUSH1 0x64 MSTORE PUSH1 0x84 MSTORE REVERT JUMPDEST PUSH1 0x1F RETURNDATASIZE ADD PUSH1 0x5 SHR SWAP1 PUSH1 0x5 SHR SWAP1 DUP1 PUSH1 0x3 MUL SWAP2 DUP1 DUP3 GT PUSH2 0xA84 JUMPI JUMPDEST POP POP PUSH1 0x20 GAS SWAP2 ADD LT PUSH2 0xA7B JUMPI DUP7 PUSH2 0xA18 JUMP JUMPDEST DUP5 RETURNDATASIZE DUP2 DUP1 RETURNDATACOPY RETURNDATASIZE SWAP1 REVERT JUMPDEST DUP1 DUP1 PUSH1 0x3 SWAP3 MUL DUP4 DUP1 MUL SUB PUSH1 0x9 SHR SWAP3 SUB MUL ADD ADD DUP8 DUP1 PUSH2 0xA69 JUMP JUMPDEST DUP4 PUSH32 0x5F15D67200000000000000000000000000000000000000000000000000000000 PUSH1 0x0 MSTORE PUSH1 0x4 MSTORE PUSH1 0x24 PUSH1 0x0 REVERT JUMPDEST SWAP1 DUP2 PUSH1 0x20 SWAP1 PUSH32 0x2EB2C2D600000000000000000000000000000000000000000000000000000000 DUP3 MSTORE PUSH1 0x0 JUMPDEST DUP4 DUP2 LT PUSH2 0xB09 JUMPI POP POP POP POP POP PUSH1 0x80 PUSH1 0x40 MSTORE JUMP JUMPDEST DUP5 CALLDATALOAD DUP3 ADD SWAP5 DUP6 CALLDATALOAD SWAP1 DUP2 EXTCODESIZE ISZERO PUSH2 0x962 JUMPI PUSH1 0xA0 SWAP2 DUP3 DUP9 ADD SWAP3 DUP4 CALLDATALOAD PUSH1 0x5 SWAP2 DUP2 DUP4 SHL SWAP5 DUP12 PUSH1 0xC0 DUP1 SWAP8 PUSH1 0x80 SWAP5 DUP2 DUP4 ADD DUP7 DUP6 ADD CALLDATALOAD EQ SWAP1 PUSH1 0x60 DUP6 ADD CALLDATALOAD EQ AND SWAP3 ADD ADD CALLDATALOAD DUP5 EQ AND ISZERO PUSH2 0xC16 JUMPI DUP10 ADD SWAP11 DUP10 ADD PUSH1 0x24 CALLDATACOPY PUSH1 0x6 SHL SWAP4 PUSH1 0xE0 DUP6 ADD PUSH1 0xA4 MSTORE PUSH2 0x104 DUP6 ADD SWAP5 PUSH1 0x0 DUP7 MSTORE PUSH1 0x40 ADD SWAP1 PUSH1 0xC4 CALLDATACOPY PUSH1 0x0 DUP1 DUP6 DUP10 DUP3 DUP7 GAS CALL ISZERO PUSH2 0xB8A JUMPI POP POP POP POP PUSH1 0x1 ADD PUSH2 0xAF6 JUMP JUMPDEST DUP7 SWAP4 SWAP5 POP RETURNDATASIZE PUSH2 0xBCB JUMPI JUMPDEST POP PUSH32 0xAFC445E200000000000000000000000000000000000000000000000000000000 PUSH1 0x0 MSTORE PUSH1 0x4 MSTORE PUSH1 0x64 MSTORE PUSH1 0x84 SWAP1 DUP2 MLOAD ADD SWAP1 MSTORE PUSH1 0x0 REVERT JUMPDEST DUP5 PUSH1 0x1F RETURNDATASIZE ADD DUP3 SHR SWAP2 SHR SWAP1 PUSH1 0x3 DUP2 DUP2 MUL SWAP3 DUP1 DUP4 GT PUSH2 0xBFF JUMPI JUMPDEST POP POP POP DUP4 GAS SWAP2 ADD LT PUSH2 0xBF5 JUMPI DUP5 PUSH2 0xB94 JUMP JUMPDEST RETURNDATASIZE PUSH1 0x0 DUP1 RETURNDATACOPY RETURNDATASIZE PUSH1 0x0 REVERT JUMPDEST DUP1 DUP1 MUL DUP4 DUP1 MUL SUB PUSH1 0x9 SHR SWAP3 SUB MUL ADD ADD DUP6 DUP1 DUP1 PUSH2 0xBE3 JUMP JUMPDEST PUSH32 0xEBA2084C00000000000000000000000000000000000000000000000000000000 PUSH1 0x0 MSTORE PUSH1 0x4 PUSH1 0x0 REVERT INVALID LOG2 PUSH5 0x6970667358 0x22 SLT KECCAK256 0xC5 0xC8 0xD0 SLOAD 0xD9 0xD5 0xDF PUSH29 0x3530EAB1C32506AAD1FCB6772C1457F0DA5443AD9E91B4A364736F6C63 NUMBER STOP ADDMOD 0xE STOP CALLER "
        },
        "methodIdentifiers": {
          "acceptOwnership(address)": "51710e45",
          "cancelOwnershipTransfer(address)": "7b37e561",
          "createConduit(bytes32,address)": "794593bc",
          "getChannel(address,uint256)": "027cc764",
          "getChannelStatus(address,address)": "33bc8572",
          "getChannels(address)": "8b9e028b",
          "getConduit(bytes32)": "6e9bfd9f",
          "getConduitCodeHashes()": "0a96ad39",
          "getKey(address)": "93790f44",
          "getPotentialOwner(address)": "906c87cc",
          "getTotalChannels(address)": "4e3f9580",
          "ownerOf(address)": "14afd79e",
          "transferOwnership(address,address)": "6d435421",
          "updateChannel(address,address,bool)": "13ad9cab"
        }
      }
    }
  }
}